:100000000C94B4010C94D1010C94D1010C94D10145
:100010000C94D1010C94D1010C94D1010C94D10118
:100020000C94D1010C94D1010C94D1010C94D10108
:100030000C94D1010C94D1010C94D1010C94D101F8
:100040000C94D1010C94D1010C94D1010C94D101E8
:100050000C94D1010C94D1010C94D1010C94D101D8
:100060000C94D1010C94D1010C94D1010C94D101C8
:10007000000000000000000000065F5F06000000B6
:100080000007070007070000147F7F147F7F14001C
:10009000242E6B6B3A120000466630180C66620024
:1000A000307A4F5D377A48000407030000000000F3
:1000B000001C3E63410000000041633E1C00000044
:1000C000082A3E1C1C3E2A0808083E3E080800007C
:1000D00000A0E06000000000080808080808000010
:1000E00000006060000000006030180C0603010092
:1000F0003E7F594D7F3E000042427F7F40400000DE
:10010000627359496F660000226349497F360000D7
:10011000181C16137F7F1000276745457D390000A6
:100120003C7E4B4979300000036371190F070000D2
:10013000367F49497F360000064F49693F1E00005F
:1001400000006C6C0000000000A0EC6C00000000DF
:10015000081C366341000000141414141414000029
:10016000004163361C080000020351590F060000CD
:100170003E7F415D5D1F1E007C7E13137E7C000070
:10018000417F7F49497F36001C3E63414163220025
:10019000417F7F41637F1C00417F7F495D41630058
:1001A000417F7F491D0103001C3E63415173720072
:1001B0007F7F08087F7F000000417F7F41000000B3
:1001C000307040417F3F0100417F7F081C77630012
:1001D000417F7F41406070007F7F060C067F7F007B
:1001E0007F7F060C187F7F001C3E6341633E1C002E
:1001F000417F7F49090F06001E3F21717F5E00008D
:10020000417F7F19396F460026674D597B320000C8
:1002100003417F7F410300007F7F40407F7F0000DC
:100220001F3F60603F1F00007F7F3018307F7F00DE
:1002300063771C081C776300074F78784F0700002E
:100240006773594D47637100007F7F414100000093
:100250000103060C183060000041417F7F00000060
:10026000080C0603060C0800808080808080808057
:100270000000030704000000207454543C78400040
:10028000413F7F44447C3800387C44446C28000063
:10029000307848493F7F4000387C54545C18000057
:1002A000487E7F490302000098BCA4A4F87C0400A7
:1002B000417F7F08047C780000447D7D4000000081
:1002C00040C484FD7D000000417F7F10386C4400F5
:1002D00000417F7F400000007C7C0C180C7C780083
:1002E0007C7C04047C780000387C44447C3800002A
:1002F00084FCF8A4243C1800183C24A4F8FC8400D6
:10030000447C78441C180000485C54547424000059
:1003100000043E7F442400003C7C40403C7C400084
:100320001C3C60603C1C00003C7C6030607C3C00FD
:10033000446C3810386C44009CBCA0A0FC7C0000CD
:100340004C64745C4C64000008083E774141000036
:1003500000000077770000004141773E0808000068
:10036000020301030203010011241FBECFEFD4E0FA
:10037000DEBFCDBF14E0A0E0B1E0E8E6F5E102C0E9
:1003800005900D92A832B107D9F724E0A8E2B4E0B5
:1003900001C01D92A233B207E1F70E9424060C941B
:1003A000B20A0C9400000E94790263EC8AE20E9477
:1003B000A50261EB89E20E94A50265E088E20E9445
:1003C000A50240E460EE8FE00E94C1020895EF9222
:1003D000FF920F931F93CF93DF93CDB7DEB72B9789
:1003E0000FB6F894DEBF0FBECDBFE982FA820B8351
:1003F0001C832D833E834F83588769877A878B8739
:100400006E2D81E30E94A5026A8182E30E94A5020B
:10041000FB806F2D85E30E94A50200E010E00DC077
:10042000E4E0F0E0EC0FFD1FE00FF11F608186E3D8
:10043000800F0E94A5020F5F1F4F8F2D90E00817BD
:10044000190774F30E94B9022B960FB6F894DEBF19
:100450000FBECDBFDF91CF911F910F91FF90EF9015
:100460000895FF920F931F93CF93DF938C0181E642
:100470000E946702F801808382E60E946702F80109
:10048000818385E60E946702F82EF8018283C0E02E
:10049000D0E009C08C2F8A590E946702F801EC0F46
:1004A000FD1F838321968F2D90E0C817D90794F301
:1004B000C801DF91CF911F910F91FF9008950E9485
:1004C000170380EC0E9450030E941B030895CF93F2
:1004D000C82F0E94170383E00E9450038C2F0E94B4
:1004E00050030E949D03C82F0E941B038C2FCF91A5
:1004F0000895CF930E941F030E945F028EE00E9426
:100500006702C82F8FE00E9467021F928F931F928D
:10051000CF9386E991E09F938F930E949006C07ECF
:100520000F900F900F900F900F900F90C03851F0D8
:1005300081EB91E09F938F930E9490060F900F9014
:1005400081E001C080E0CF910895CF93DF93D82F51
:10055000C62F0E94170382E00E9450038D2F0E9435
:1005600050038C2F0E9450030E941B03DF91CF91F8
:1005700008950E94170381E80E9450030E941B0304
:100580000895FF920F931F93CF93DF93CDB7DEB7FC
:100590002C970FB6F894DEBF0FBECDBF182FF62EE6
:1005A000042F0E9417038CE0E8E0F1E0DE011196D1
:1005B00001900D928A95E1F780E090E01AC0E1E0A9
:1005C000F0E0EC0FFD1FE80FF91F2081211310C090
:1005D00085E00E945003812F0E9450038F2D0E94BE
:1005E0005003802F0E9450030E941B0381E005C02E
:1005F00001968C3091051CF380E081110CC01F9294
:100600001F9386EE91E09F938F930E9490060F9028
:100610000F900F900F902C960FB6F894DEBF0FBE80
:10062000CDBFDF91CF911F910F91FF90089588B3B7
:100630008F7E88BB089588B3806188BB08958BE066
:1006400092E09F938F930E94900687B3806B87BB45
:1006500087B38F7B87BB81E58DB98DB1877F8DB9DE
:100660008DB18B7F8DB90E941B033FB128B39DB123
:1006700087B31F923F931F922F931F929F931F92B6
:100680008F9387E192E09F938F930E9490068DB79E
:100690009EB70C960FB6F8949EBF0FBE8DBF0895FF
:1006A000CF93C82F8FB11F928F9382E492E09F93D4
:1006B0008F930E949006CFB91F92CF9387E592E067
:1006C0009F938F930E9490068FB11F928F9382E623
:1006D00092E09F938F930E9490062FE38DE093E02A
:1006E000215080409040E1F700C000008DB79EB7D8
:1006F0000C960FB6F8949EBF0FBE8DBF0DC08EB185
:100700001F928F938DE692E09F938F930E949006A5
:100710000F900F900F900F90779BF1CF8EB11F929B
:100720008F9380E892E09F938F930E9490060F90A2
:100730000F900F900F90CF91089581E10E94500388
:100740008FB108950F931F93CF93DF93CDB7DEB78B
:1007500080E992E09F938F930E9490068FE992E048
:100760009F938F930E9490060E94D6040F900F9043
:100770000F900F9000E010E015C060E1802F0E9404
:100780009004C80182959295907F9827807F982742
:1007900027E030E02C0F3D1F820F931F0E940F05B2
:1007A0000F5F1F4FC957DF4F88819981C758D040CD
:1007B0000817190714F360E0809106010E94A9044C
:1007C000DF91CF911F910F910895CF93DF93CDB714
:1007D000DEB7C258D1090FB6F894DEBF0FBECDBF49
:1007E0000E94310587B38E7F87BB88B31F928F939A
:1007F00085EA92E09F938F930E9490060E946B057A
:1008000081EB92E09F938F930E9490060E94470491
:1008100082E8E4E1F1E0DE01119601900D928A9503
:10082000E1F78FEB92E09F938F930E9490061F92C7
:1008300088E08F938FEC92E09F938F930E949006B5
:100840008DB79EB7825891090FB6F8949EBF0FBE20
:100850008DBFADB7BEB7119682E8FE01319601900B
:100860000D928A95E1F70E94A2030FB6F894DEBFBD
:100870000FBECDBFCE57DF4F0FB6F894DEBF0FBE11
:10088000CDBFDF91CF9108958093001008958EEA37
:100890000E94440481EA0E9444048AED0E944404B8
:1008A00082E10E94440488EC0E94440488EA0E9489
:1008B00044048FE30E94440485ED0E94440480E8D0
:1008C0000E94440481E80E94440480E50E9444049C
:1008D00089ED0E94440481E20E94440480E20E9467
:1008E000440480E00E9444048BED0E94440480E3B1
:1008F0000E9444048DEA0E94440480E00E94440463
:1009000080E40E94440484EA0E94440486EA0E942F
:1009100044048FEA0E9444040895809300120895CD
:10092000CF93DF93C82FD62F81E20E9444048D2FEE
:100930000E9444048FE70E94440482E20E9444041F
:100940008C2F0E94440487E00E944404DF91CF91E1
:1009500008950E94900488E10E948D048EE70E9411
:100960008D048EE70E948D048FEF0E948D048FEF1F
:100970000E948D048EE70E948D048EE70E948D04F4
:1009800088E10E948D040895CF93DF9360E00E9478
:100990009004C0E0D0E004C080E00E948D04219665
:1009A000C038D105CCF3DF91CF910895CF93DF9379
:1009B00060E080E00E949004C0E0D0E004C08C2F92
:1009C0000E94C4042196C830D105CCF360E080E0D9
:1009D0000E949004DF91CF9108950F931F93CF93BE
:1009E000DF938C01C0E0D0E012C0D801EC91F0E0C0
:1009F000B097EE0FFF1FEE0FFF1FEE0FFF1FEC0F64
:100A0000FD1FE059FF4F84910E948D042196C8304C
:100A1000D1055CF3DF91CF911F910F910895EF9273
:100A2000FF920F931F93CF93DF937C01FC01019002
:100A30000020E9F731978F01081B190BC0E0D0E0C7
:100A400006C0C7018C0F9D1F0E94ED042196C017A0
:100A5000D107BCF3DF91CF911F910F91FF90EF90E1
:100A6000089581B3806281BB8FB581608FBD8FB5E2
:100A700082608FBD8EB588608EBD8EB580618EBD63
:100A80008FB58F778FBD8FB580648FBD8EB58B7F0F
:100A90008EBD8EB58D7F8EBD8EB581608EBD8FB5BE
:100AA000877F8FBD1BBC81E08ABD81B38F7E81BBF8
:100AB000109204181092081808951092001482B32E
:100AC000807182BB8111FBCFE0E0F4E16081708135
:100AD0008081908108950E945D0560930418709351
:100AE0000818089585B7806885BF80B7806280BF89
:100AF0000895EF92FF920F931F93CF93DF93CDB79B
:100B0000DEB766970FB6F894DEBF0FBECDBF8AEA98
:100B1000898380E18A8381E08B838CEC8C830E94C3
:100B2000D301E980FA800B811C812D813E814F81A8
:100B3000588569857A858B850E94E701CE010C96E0
:100B40000E9431028F851F928F9384EC93E09F93D4
:100B50008F930E9490060F900F900F900F906696C3
:100B60000FB6F894DEBF0FBECDBFDF91CF911F91BE
:100B70000F91FF90EF9008950F931F93CF93DF9302
:100B80000E941F0382E68FB91F928F9309EF13E033
:100B90001F930F930E9490068FB11F928F93C8E00E
:100BA000D4E0DF93CF930E94900681E78FB91F9224
:100BB0008F931F930F930E9490068FB11F928F9374
:100BC000DF93CF930E94900681E68FB91F928F9397
:100BD0001F930F930E9490068FB11F928F93DF9304
:100BE000CF930E9490068CE68FB91F928F931F932C
:100BF0000F930E9490068FB11F928F93DF93CF9334
:100C00000E9490068DB79EB780960FB6F8949EBF4F
:100C10000FBE8DBFDF91CF911F910F9108955D9B06
:100C2000FECF8CB908955F9BFECF8CB1089590BD27
:100C300089B988E18AB98EE880BD63E176E08FE00A
:100C400096E00E9445060895CF93DF938FE190E0F0
:100C50000E941706C4E1D4E0DF93CF930E94900670
:100C60000E9472050E94E503DF93CF930E949006D5
:100C70000E9479050E94BC050F900F900F900F9075
:100C800080E090E0DF91CF9108950F931F93CF9371
:100C9000DF93009731F46115710519F480E090E05D
:100CA0003AC08B01EC016EE070E081E090E00E94C0
:100CB0008708FC01892B91F380E8838301151105D6
:100CC00071F01387028781E88383809128049091D3
:100CD0002904892B21F4F0932904E0932804209718
:100CE000C9F0D187C08783818260838380912A0481
:100CF00090912B04892B71F4F0932B04E0932A0438
:100D000080912C0490912D04892B21F4F0932D04D3
:100D1000E0932C04CF01DF91CF911F910F910895A3
:100D2000A0E0B0E0E6E9F6E00C948B0AAE014B5F80
:100D30005F4FFA0161917191AF0180912A04909106
:100D40002B040E94A606E2E00C94A70AABE0B0E0F8
:100D5000ECEAF6E00C947B0A6C017B018A01FC0151
:100D600017821682838181FFCCC1CE0101963C019E
:100D7000F6019381F70193FD859193FF81917F01A6
:100D8000882309F4BAC1853239F493FD859193FF24
:100D900081917F01853229F4B60190E00E94E1093A
:100DA000E7CF912C212C312CFFE1F315D8F08B32B9
:100DB00079F038F4803279F08332A1F4232D206168
:100DC0001DC08D3261F0803369F4232D216016C07F
:100DD000832D8260382EE32DE4603E2E2AC0F32D51
:100DE000F8601DC037FC2DC020ED280F2A3040F0E0
:100DF0008E32B9F436FC81C1232D2064322E19C005
:100E000036FE06C08AE0989E200D1124922E11C055
:100E1000EAE02E9E200D1124222EF32DF0623F2EAB
:100E200008C08C3621F4832D8068382E02C08836A5
:100E300041F4F70193FD859193FF81917F01811129
:100E4000B3CF982F9F7D9554933028F40C5F1F4F9C
:100E50009FE399830DC0833631F0833771F083357A
:100E600009F059C021C0F801808189830E5F1F4FAE
:100E700088248394912C530113C02801F2E04F0E73
:100E8000511CF801A080B18036FE03C0692D70E0CE
:100E900002C06FEF7FEFC5010E94D6094C018201AD
:100EA000F32DFF773F2E16C0280122E0420E511C81
:100EB000F801A080B18036FE03C0692D70E002C049
:100EC0006FEF7FEFC5010E94C4094C01F32DF0685C
:100ED0003F2E820133FC1BC0822D90E088169906BC
:100EE000B0F4B60180E290E00E94E1092A94F4CFC8
:100EF000F50137FC859137FE81915F01B60190E0E5
:100F00000E94E10921102A9421E0821A910881149B
:100F1000910471F7E8C0843611F0893641F5F80183
:100F200037FE07C060817181828193810C5F1F4F02
:100F300008C060817181072E000C880B990B0E5F31
:100F40001F4FF32DFF763F2E97FF09C09095809598
:100F5000709561957F4F8F4F9F4FF0683F2E2AE02D
:100F600030E0A3010E941D0A882E861845C08537EF
:100F700031F4232D2F7EB22E2AE030E025C0932DB0
:100F8000997FB92E8F36C1F018F4883579F0B5C045
:100F9000803719F0883721F0B0C0E92FE061BE2E0C
:100FA000B4FE0DC0FB2DF460BF2E09C034FE0AC094
:100FB000292F2660B22E06C028E030E005C020E1CF
:100FC00030E002C020E132E0F801B7FE07C06081E6
:100FD0007181828193810C5F1F4F06C06081718196
:100FE00080E090E00E5F1F4FA3010E941D0A882E33
:100FF0008618FB2DFF773F2E36FE0DC0232D2E7F4A
:10100000A22E891458F434FE0BC032FC09C0832D83
:101010008E7EA82E05C0B82CA32C03C0B82C01C00E
:10102000B92CA4FE0FC0FE01E80DF11D80818033B4
:1010300021F49A2D997EA92E09C0A2FE06C0B39470
:10104000B39404C08A2D867809F0B394A3FC11C030
:10105000A0FE06C0B21488F4280C922C9B180EC077
:10106000B21460F4B60180E290E00E94E109B3940A
:10107000F7CFB21418F42B1802C0982C212CA4FE20
:1010800010C0B60180E390E00E94E109A2FE17C003
:10109000A1FC03C088E790E002C088E590E0B601BB
:1010A0000CC08A2D867859F0A1FE02C08BE201C0E7
:1010B00080E2A7FC8DE2B60190E00E94E10989146C
:1010C00038F4B60180E390E00E94E1099A94F7CFEA
:1010D0008A94F301E80DF11D8081B60190E00E9431
:1010E000E1098110F5CF222009F442CEB60180E259
:1010F00090E00E94E1092A94F6CFF601868197815B
:1011000002C08FEF9FEF2B96E2E10C94970A0F93AA
:101110001F93CF93DF93869F8001879F100D969F2B
:10112000100D1124C8010E94A308EC01009729F0BA
:10113000A80160E070E00E94CF09CE01DF91CF915D
:101140001F910F9108950F931F93CF93DF938230D8
:10115000910510F482E090E0E0913004F0913104C8
:1011600020E030E0A0E0B0E0309719F140815181FB
:101170000281138148175907C8F08417950769F44D
:10118000109731F012960C93129713961C9327C068
:10119000009330041093310422C02115310519F059
:1011A0004217530718F49A01BD01EF01DF01F8015E
:1011B000DBCF21153105F9F0281B390B243031051F
:1011C00080F48A819B816115710521F0FB01938375
:1011D000828304C09093310480933004FE013296E0
:1011E00044C0FE01E20FF31F819391932250310915
:1011F000398328833AC020912E0430912F04232B69
:1012000041F4209102013091030130932F04209387
:101210002E0420910001309101012115310541F486
:101220002DB73EB74091040150910501241B350BA9
:10123000E0912E04F0912F04E217F307A0F42E1B87
:101240003F0B2817390778F0AC014E5F5F4F24172A
:10125000350748F04E0F5F1F50932F0440932E0424
:101260008193919302C0E0E0F0E0CF01DF91CF9154
:101270001F910F910895CF93DF93009709F481C0D8
:10128000FC01329713821282A0913004B091310494
:10129000109781F420813181820F931F20912E04B9
:1012A00030912F042817390751F5F0932F04E0935C
:1012B0002E0467C0ED0120E030E0CE17DF0740F4D8
:1012C0004A815B819E0141155105F1F0EA01F5CF9C
:1012D000D383C28340815181840F951FC817D907DA
:1012E00059F488819981840F951F02969183808398
:1012F0008A819B81938382832115310529F4F093A0
:101300003104E09330043DC0E901FB83EA83499155
:101310005991C40FD51FEC17FD0761F480819181AD
:10132000840F951F0296E9019983888382819381B6
:101330009B838A83E0E0F0E012968D919C91139755
:10134000009719F0FD01DC01F7CF8D919C91119769
:101350009D012E5F3F4F820F931F20912E043091ED
:101360002F042817390769F4309729F410923104B3
:101370001092300402C013821282B0932F04A09303
:101380002E04DF91CF910895FC01059061507040CB
:101390000110D8F7809590958E0F9F1F0895DC015E
:1013A00001C06D9341505040E0F70895FC01615039
:1013B000704001900110D8F7809590958E0F9F1F77
:1013C00008950F931F93CF93DF93FB01238121FD9A
:1013D00003C08FEF9FEF2CC022FF16C046815781BC
:1013E000248135814217530744F4A081B1819D01C6
:1013F0002F5F3F4F318320838C93268137812F5F6E
:101400003F4F3783268314C08B01EC01FB0100841E
:10141000F185E02D0995892BE1F6D80116968D917D
:101420009C911797019617969C938E931697CE01D1
:10143000DF91CF911F910F910895FA01AA272830CB
:1014400051F1203181F1E8946F936E7F6E5F7F4F91
:101450008F4F9F4FAF4FB1E03ED0B4E03CD0670F0D
:10146000781F891F9A1FA11D680F791F8A1F911D60
:10147000A11D6A0F711D811D911DA11D20D009F4B0
:1014800068943F912AE0269F11243019305D3193F2
:10149000DEF6CF010895462F4770405D4193B3E0DB
:1014A0000FD0C9F7F6CF462F4F70405D4A3318F082
:1014B000495D31FD4052419302D0A9F7EACFB4E033
:1014C000A6959795879577956795BA95C9F70097EB
:1014D0006105710508959B01AC010A2E069457958C
:1014E000479537952795BA95C9F7620F731F841FE3
:1014F000951FA01D08952F923F924F925F926F9279
:101500007F928F929F92AF92BF92CF92DF92EF9293
:10151000FF920F931F93CF93DF93CDB7DEB7CA1B14
:10152000DB0B0FB6F894DEBF0FBECDBF09942A883F
:10153000398848885F846E847D848C849B84AA84E7
:10154000B984C884DF80EE80FD800C811B81AA8174
:10155000B981CE0FD11D0FB6F894DEBF0FBECDBF3F
:08156000ED010895F894FFCF9E
:101568000000320420000100304050607028292A11
:101578002B2C2D0F2A204D656E75202A00000000A7
:10158800000000004D6178652D6D616E6461670033
:101598000000000050697262616465740000000018
:1015A80000000000546162617461000000000000E6
:1015B80000000000436176612D73F86E6461670076
:1015C800000000004279676765726E206C616200F6
:1015D800000000007800000000000000000000008B
:1015E800000000007900000000000000000000007A
:1015F8000000000008000A76616C75653A202564D1
:101608002063616E5F6374726C3A202564200A0D52
:10161800004D435032353135206973204E4F5420E8
:10162800696E20636F6E66696775726174696F6E43
:10163800206D6F64652061667465722072657365DC
:101648007420210A0D00596F752063616E206E6F3A
:1016580074206269742D6D6F64696679207265679C
:101668006973746572202564200A0073746172744A
:10167800207370690A0D00444452423A2025642CB4
:1016880020535043523A2025642C20504F52544244
:101698003A2025642C20535044523A202564200DCA
:1016A8000A000A0A5350445220666F7272696765CD
:1016B8003A2025640A0D00646174613A2025640AA1
:1016C8000D00535044523A2025640A0D00535053DC
:1016D800522077616974696E673A2025640A0D00A3
:1016E8005350535220646F6E653A2025640A0D00EA
:1016F800696E6E69206D656E7520696E6974007219
:101708006573657400706F7274623A2025640A0DFF
:10171800006574746572206B6E6170700A0D0066E6
:101728006F72206D656E7520696E69740A0D006DA3
:1017380061696E206D656E753A2025640A0D005347
:1017480074617274696E67205352414D20746573D9
:10175800742E2E2E00577269746520706861736547
:10176800206572726F723A206578745F72616D5B82
:101778002534645D203D2025303258202873686F59
:10178800756C642062652025303258290A0052653C
:101798007472696576616C20706861736520657222
:1017A800726F723A206578745F72616D5B2534647C
:1017B8005D203D2025303258202873686F756C6491
:1017C8002062652025303258290A005352414D20A5
:1017D8007465737420636F6D706C657465642077CD
:1017E800697468200A253464206572726F727320E8
:1017F800696E20777269746520706861736520610D
:101808006E64200A253464206572726F72732069D1
:101818006E2072657472696576616C207068617398
:10182800650A0A0052656369657665645F6D65736C
:10183800736167653A202564200A202D2D2D2D2DF2
:101848002D2D2D2D2D2D2D2D2D2D2D2D2D2D2D2DC0
:101858002D2D2D2D2D200A0D006E657744617461A4
:101868003A202564200A0D00535044523A2025643A
:10187800200A0D000D0A0A0A0A5374617274207452
:081888006573743A200A0D009B
:00000001FF
