:100000000C94B4010C94D1010C94D1010C94D10145
:100010000C94D1010C94D1010C94D1010C94D10118
:100020000C94D1010C94D1010C94D1010C94D10108
:100030000C94D1010C94D1010C94D1010C94D101F8
:100040000C94D1010C94D1010C94D1010C94D101E8
:100050000C94D1010C94D1010C94D1010C94D101D8
:100060000C94D1010C94D1010C94D1010C94D101C8
:10007000000000000000000000065F5F06000000B6
:100080000007070007070000147F7F147F7F14001C
:10009000242E6B6B3A120000466630180C66620024
:1000A000307A4F5D377A48000407030000000000F3
:1000B000001C3E63410000000041633E1C00000044
:1000C000082A3E1C1C3E2A0808083E3E080800007C
:1000D00000A0E06000000000080808080808000010
:1000E00000006060000000006030180C0603010092
:1000F0003E7F594D7F3E000042427F7F40400000DE
:10010000627359496F660000226349497F360000D7
:10011000181C16137F7F1000276745457D390000A6
:100120003C7E4B4979300000036371190F070000D2
:10013000367F49497F360000064F49693F1E00005F
:1001400000006C6C0000000000A0EC6C00000000DF
:10015000081C366341000000141414141414000029
:10016000004163361C080000020351590F060000CD
:100170003E7F415D5D1F1E007C7E13137E7C000070
:10018000417F7F49497F36001C3E63414163220025
:10019000417F7F41637F1C00417F7F495D41630058
:1001A000417F7F491D0103001C3E63415173720072
:1001B0007F7F08087F7F000000417F7F41000000B3
:1001C000307040417F3F0100417F7F081C77630012
:1001D000417F7F41406070007F7F060C067F7F007B
:1001E0007F7F060C187F7F001C3E6341633E1C002E
:1001F000417F7F49090F06001E3F21717F5E00008D
:10020000417F7F19396F460026674D597B320000C8
:1002100003417F7F410300007F7F40407F7F0000DC
:100220001F3F60603F1F00007F7F3018307F7F00DE
:1002300063771C081C776300074F78784F0700002E
:100240006773594D47637100007F7F414100000093
:100250000103060C183060000041417F7F00000060
:10026000080C0603060C0800808080808080808057
:100270000000030704000000207454543C78400040
:10028000413F7F44447C3800387C44446C28000063
:10029000307848493F7F4000387C54545C18000057
:1002A000487E7F490302000098BCA4A4F87C0400A7
:1002B000417F7F08047C780000447D7D4000000081
:1002C00040C484FD7D000000417F7F10386C4400F5
:1002D00000417F7F400000007C7C0C180C7C780083
:1002E0007C7C04047C780000387C44447C3800002A
:1002F00084FCF8A4243C1800183C24A4F8FC8400D6
:10030000447C78441C180000485C54547424000059
:1003100000043E7F442400003C7C40403C7C400084
:100320001C3C60603C1C00003C7C6030607C3C00FD
:10033000446C3810386C44009CBCA0A0FC7C0000CD
:100340004C64745C4C64000008083E774141000036
:1003500000000077770000004141773E0808000068
:10036000020301030203010011241FBECFEFD4E0FA
:10037000DEBFCDBF11E0A0E0B1E0EAE2FBE002C0E9
:1003800005900D92A839B107D9F721E0A8E9B1E0AD
:1003900001C01D92A23AB207E1F70E94C0030C947B
:1003A00093050C94000087B3806B87BB87B38F7B6A
:1003B00087BB81E58DB98DB1877F8DB98DB18B7F7D
:1003C0008DB988B3806188BB089588B38F7E88BB60
:1003D000089588B3806188BB0895CF93C82F0E9489
:1003E000E501CFB9779BFECF0E94E901CF91089537
:1003F00080E00E94ED018FB108950F931F93CF937A
:10040000DF93CDB7DEB70E9479020E94080300E0B7
:1004100010E015C060E1802F0E94C202C8018295E1
:100420009295907F9827807F982727E030E02C0FC7
:100430003D1F820F931F0E9441030F5F1F4FC9573B
:10044000DF4F88819981C758D0400817190714F3E6
:1004500060E0809106010E94DB02DF91CF911F9145
:100460000F910895CF93DF93CDB7DEB7C258D1096E
:100470000FB6F894DEBF0FBECDBF0E94630387B3F3
:100480008F7787BB88B3816088BB0E949D030E94E1
:10049000790282E8E8E0F1E0DE01119601900D9228
:1004A0008A95E1F78DB79EB7825891090FB6F894F7
:1004B0009EBF0FBE8DBFADB7BEB7119682E8FE01DD
:1004C000319601900D928A95E1F70E94FD010FB6D9
:1004D000F894DEBF0FBECDBFCE57DF4F0FB6F894F6
:1004E000DEBF0FBECDBFDF91CF9108958093001086
:1004F00008958EEA0E94760281EA0E9476028AEDD1
:100500000E94760282E10E94760288EC0E947602C6
:1005100088EA0E9476028FE30E94760285ED0E94AF
:10052000760280E80E94760281E80E94760280E5E9
:100530000E94760289ED0E94760281E20E94760294
:1005400080E20E94760280E00E9476028BED0E949B
:10055000760280E30E9476028DEA0E94760280E0B5
:100560000E94760280E40E94760284EA0E9476026B
:1005700086EA0E9476028FEA0E94760208958093AE
:1005800000120895CF93DF93C82FD62F81E20E94E7
:1005900076028D2F0E9476028FE70E94760282E219
:1005A0000E9476028C2F0E94760287E00E947602DB
:1005B000DF91CF9108950E94C20288E10E94BF029C
:1005C0008EE70E94BF028EE70E94BF028FEF0E945B
:1005D000BF028FEF0E94BF028EE70E94BF028EE72C
:1005E0000E94BF0288E10E94BF020895CF93DF936B
:1005F00060E00E94C202C0E0D0E004C080E00E943F
:10060000BF022196C038D105CCF3DF91CF91089578
:10061000CF93DF9360E080E00E94C202C0E0D0E0B0
:1006200004C08C2F0E94F6022196C830D105CCF36D
:1006300060E080E00E94C202DF91CF9108950F93A5
:100640001F93CF93DF938C01C0E0D0E012C0D8019C
:10065000EC91F0E0B097EE0FFF1FEE0FFF1FEE0FD3
:10066000FF1FEC0FFD1FE059FF4F84910E94BF0256
:100670002196C830D1055CF3DF91CF911F910F9186
:100680000895EF92FF920F931F93CF93DF937C0116
:10069000FC0101900020E9F731978F01081B190B2D
:1006A000C0E0D0E006C0C7018C0F9D1F0E941F0351
:1006B0002196C017D107BCF3DF91CF911F910F9105
:1006C000FF90EF90089581B3806281BB8FB5816008
:1006D0008FBD8FB582608FBD8EB588608EBD8EB5A3
:1006E00080618EBD8FB58F778FBD8FB580648FBDD4
:1006F0008EB58B7F8EBD8EB58D7F8EBD8EB58160A4
:100700008EBD8FB5877F8FBD1BBC81E08ABD81B355
:100710008F7E81BB109204181092081808951092D1
:10072000001482B3807182BB8111FBCFE0E0F4E161
:10073000608170818081908108950E948F03609311
:10074000041870930818089585B7806885BF80B72E
:10075000806280BF08955D9BFECF8CB908955F9B3A
:10076000FECF8CB1089590BD89B988E18AB98EE831
:1007700080BD6FEA73E08BEA93E00E94D403089592
:100780008FE190E00E94B3030E94A4030E94320212
:100790008AE891E00E941F040E94D30185E50E942F
:1007A000ED010E94F801FACF0F931F93CF93DF93CF
:1007B000009731F46115710519F480E090E03AC0BA
:1007C0008B01EC016EE070E081E090E00E944F044C
:1007D000FC01892B91F380E883830115110571F0E9
:1007E0001387028781E88383809198019091990112
:1007F000892B21F4F0939901E09398012097C9F097
:10080000D187C08783818260838380919A01909190
:100810009B01892B71F4F0939B01E0939A018091E5
:100820009C0190919D01892B21F4F0939D01E0930F
:100830009C01CF01DF91CF911F910F9108950F93EC
:100840001F93CF93DF93E0919A01F0919B01238155
:1008500021FF1BC08C01D0E0C0E0F80181918F0125
:1008600060919A0170919B01DB011896ED91FC91CA
:100870001997882331F00995892B79F3DFEFCFEFB2
:10088000ECCF8AE00995892B19F08FEF9FEF02C01A
:100890008D2F9C2FDF91CF911F910F9108950F9372
:1008A0001F93CF93DF93869F8001879F100D969FA4
:1008B000100D1124C8010E946B04EC01009729F06F
:1008C000A80160E070E00E948C05CE01DF91CF911D
:1008D0001F910F9108950F931F93CF93DF93823051
:1008E000910510F482E090E0E091A001F091A10167
:1008F00020E030E0A0E0B0E0309719F14081518174
:100900000281138148175907C8F08417950769F4C5
:10091000109731F012960C93129713961C9327C0E0
:100920000093A0011093A10122C02115310519F0F7
:100930004217530718F49A01BD01EF01DF01F801D6
:10094000DBCF21153105F9F0281B390B2430310597
:1009500080F48A819B816115710521F0FB019383ED
:10096000828304C09093A1018093A001FE0132967E
:1009700044C0FE01E20FF31F81939193225031098D
:10098000398328833AC020919E0130919F01232B07
:1009900041F4209102013091030130939F01209393
:1009A0009E0120910001309101012115310541F492
:1009B0002DB73EB74091040150910501241B350B22
:1009C000E0919E01F0919F01E217F307A0F42E1B26
:1009D0003F0B2817390778F0AC014E5F5F4F2417A3
:1009E000350748F04E0F5F1F50939F0140939E01C3
:1009F0008193919302C0E0E0F0E0CF01DF91CF91CD
:100A00001F910F910895CF93DF93009709F481C050
:100A1000FC01329713821282A091A001B091A10132
:100A2000109781F420813181820F931F20919E01C4
:100A300030919F012817390751F5F0939F01E093FA
:100A40009E0167C0ED0120E030E0CE17DF0740F4E3
:100A50004A815B819E0141155105F1F0EA01F5CF14
:100A6000D383C28340815181840F951FC817D90752
:100A700059F488819981840F951F02969183808310
:100A80008A819B81938382832115310529F4F09318
:100A9000A101E093A0013DC0E901FB83EA834991F4
:100AA0005991C40FD51FEC17FD0761F48081918126
:100AB000840F951F0296E90199838883828193812F
:100AC0009B838A83E0E0F0E012968D919C911397CE
:100AD000009719F0FD01DC01F7CF8D919C911197E2
:100AE0009D012E5F3F4F820F931F20919E013091F9
:100AF0009F012817390769F4309729F41092A10152
:100B00001092A00102C013821282B0939F01A093A1
:100B10009E01DF91CF910895DC0101C06D9341509A
:0A0B20005040E0F70895F894FFCF6D
:100B2A000000A201200001002A204D656E75202ACE
:100B3A0000000000000000004D6178652D6D616EB7
:100B4A006461670000000000506972626164657444
:100B5A00000000000000000054616261746100003E
:100B6A000000000000000000436176612D73F86EFA
:100B7A0064616700000000004279676765726E2051
:100B8A006C616200000000007800000000000000B4
:100B9A0000000000000000007900000000000000D2
:100BAA000000000000000000080053746172742005
:080BBA00746573743A20000019
:00000001FF
