S01000006279676765726E322E73726563F4
S11300000C944F000C946C000C946C000C946C00D9
S11300100C946C000C946C000C946C000C946C00AC
S11300200C946C000C946C000C946C000C946C009C
S11300300C946C000C946C000C946C000C946C008C
S11300400C946C000C946C000C946C000C946C007C
S11300500C946C000C946C000C946C000C946C006C
S11300600C946C000C946C000C946C000C946C005C
S1130070084AD73B3BCE016E84BCBFFDC12F3D6C0B
S113008074319ABD56833DDA3D00C77F11BED9E471
S1130090BB4C3E916BAAAABE000000803F00112415
S11300A01FBECFEFD4E0DEBFCDBF11E0A0E0B1E0D2
S11300B0EEE1F2E102C005900D92A432B107D9F746
S11300C021E0A4E2B1E001C01D92AE32B207E1F733
S11300D00E94A9010C940D090C94000081B3806264
S11300E081BB8FB581608FBD8FB582608FBD8EB5AA
S11300F088608EBD8EB580618EBD8FB58F778FBDC4
S11301008FB580648FBD8EB58B7F8EBD8EB58D7F90
S11301108EBD8EB581608EBD8FB5877F8FBD1BBCB4
S113012081E08ABD81B38F7E81BB10920418109246
S1130130081808951092001482B3807182BB811153
S1130140FBCFE0E0F4E160817081808190810895CB
S11301508D3970F090E08C59910963E670E00E944B
S1130160780424E6269FC001279F900D112408954A
S113017021E08C3908F420E030E02150310944E6D4
S1130180429FC001439F900D112408958F929F9226
S1130190AF92BF92CF92DF92EF92FF92CF930097EC
S11301A021F46115710509F457C07B01BC01072EC8
S11301B0000C880B990B0E94B2024B015C01B70141
S11301C0FF0C880B990B0E94B202A50194010E94B6
S11301D0DE016B017C0124EE3BEC46E150E40E941D
S11301E08903181664F422ED33E54BE750E4C701A4
S11301F0B6010E943D02181624F4C2E003C0C2E016
S113020001C0C0E022ED33E54BE750E4C701B6017D
S11302100E94890318165CF420EE3DEE4FEA50E488
S1130220C701B6010E943D0218160CF0C3E020EE8F
S11302303DEE4FEA50E4C701B6010E948903181647
S113024074F42BED3FE049E45FE3C701B6010E947B
S11302503D0218161CF403C0C4E001C0C1E08C2F99
S1130260CF91FF90EF90DF90CF90BF90AF909F9091
S11302708F900895EF92FF920F931F93CF93DF9384
S113028000D000D01F92CDB7DEB70E949A00862F0F
S1130290172F0E94A800082FE92E812F0E94A80082
S11302A0182FF92E682F792F802F9E2D0E94C600BB
S11302B0202F3E2D412F5F2D682F70E080E090E0CD
S11302C00F900F900F900F900F90DF91CF911F918F
S11302D00F91FF90EF900895CF93DF9300D000D05B
S11302E01F92CDB7DEB70E943A0129833A834B832C
S11302F05F938B818F938A818F9389818F9386E01B
S113030091E09F938F930E94EB040F900F900F90B6
S11303100F900F900F900F900F900F900F900F90E1
S1130320DF91CF91089585B7806885BF80B78062DB
S113033080BF089590BD89B988E18AB98EE880BDEF
S113034008955D9BFECF8CB908955F9BFECF8CB161
S113035008958FE190E00E949A0165EA71E081EAD4
S113036091E00E94A0040E9493010E946E008EE11D
S113037091E09F938F930E94EB040F900F900E9443
S11303806C012FEF8FEF9EE0215080409040E1F709
S113039000C00000F4CF0E94410360F080E891E0C7
S11303A009F49EEF0E94480328F040E851E071F4FC
S11303B05EEF0CC00C9417030C948203E92FE078D1
S11303C00E94600340F3092E052AB1F3261737076C
S11303D04807590738F00E2E07F8E02569F0E025A4
S11303E0E0640AC0EF6307F8009407FADB01B9017F
S11303F09D01DC01CA01AD01EF930E9455020E94E8
S11304004F030E940E025F91552339F02BED3FE01C
S113041049E450FD49EC0C9404040895DF93DD276E
S1130420B92FBF7740E85FE31616170648075B0746
S113043018F4D92F0E948E039F938F937F936F9309
S11304400E94FF03E0E7F0E00E941A030E944F03BA
S11304502F913F914F915F910E94A503DD2351F0AD
S11304609058A2EA2AED3FE049EC5FE3D0785D279B
S11304700E941B04DF910C944F030E94ED0208F4C8
S113048081E008950E94480358F00E94410340F01F
S113049029F45F3F29F00C94110351110C94830348
S11304A00C9417030E94600368F39923B1F3552356
S11304B091F3951B550BBB27AA2762177307840773
S11304C038F09F5F5F4F220F331F441FAA1FA9F309
S11304D035D00E2E3AF0E0E832D091505040E695F7
S11304E0001CCAF72BD0FE2F29D0660F771F881F58
S11304F0BB1F261737074807AB07B0E809F0BB0B4B
S1130500802DBF01FF2793585F4F3AF09E3F51055E
S113051078F00C9411030C9483035F3FE4F3983E4A
S1130520D4F3869577956795B795F7959F5FC9F747
S1130530880F911D9695879597F90895E1E0660FC8
S1130540771F881FBB1F621773078407BA0720F041
S1130550621B730B840BBA0BEE1F88F7E0950895AA
S1130560E89409C097FB3EF4909580957095619549
S11305707F4F8F4F9F4F9923A9F0F92F96E9BB27FF
S11305809395F695879577956795B795F111F8CF7B
S1130590FAF4BB0F11F460FF1BC06F5F7F4F8F4FE6
S11305A09F4F16C0882311F096E911C0772321F0DC
S11305B09EE8872F762F05C0662371F096E8862F74
S11305C070E060E02AF09A95660F771F881FDAF7CB
S11305D0880F9695879597F90895990F0008550FF8
S11305E0AA0BE0E8FEEF16161706E807F907C0F0B5
S11305F012161306E407F50798F0621B730B840BBD
S1130600950B39F40A2661F0232B242B252B21F496
S113061008950A2609F4A140A6958FEF811D811D36
S1130620089597F99F6780E870E060E008959FEF70
S113063080EC0895DF93CF931F930F93FF92EF9273
S1130640DF927B018C01689406C0DA2EEF010E94D0
S1130650A503FE01E894A591259135914591559105
S1130660A6F3EF010E941B04FE019701A801DA948E
S113067069F7DF90EF90FF900F911F91CF91DF9179
S1130680089500240A9416161706180609060895F4
S113069000240A9412161306140605060895092E5A
S11306A00394000C11F4882352F0BB0F40F4BF2BC9
S11306B011F460FF04C06F5F7F4F8F4F9F4F089509
S11306C057FD9058440F551F59F05F3F71F04795FF
S11306D0880F97FB991F61F09F3F79F087950895E4
S11306E0121613061406551FF2CF4695F1DF08C003
S11306F0161617061806991FF1CF86957105610520
S113070008940895E894BB2766277727CB0197F9C7
S113071008950E94ED0208F48FEF08959B01AC0147
S113072060E070E080E89FE30C9470040E94410351
S113073038F00E94480320F0952311F00C94110323
S11307400C94170311240C9483030E94600370F328
S1130750959FC1F3950F50E0551F629FF001729F62
S1130760BB27F00DB11D639FAA27F00DB11DAA1F71
S1130770649F6627B00DA11D661F829F2227B00DBE
S1130780A11D621F739FB00DA11D621F839FA00D49
S1130790611D221F749F3327A00D611D231F849F99
S11307A0600D211D822F762F6A2F11249F575040F0
S11307B09AF0F1F088234AF0EE0FFF1FBB1F661F6B
S11307C0771F881F91505040A9F79E3F510580F034
S11307D00C9411030C9483035F3FE4F3983ED4F329
S11307E0869577956795B795F795E7959F5FC1F7D8
S11307F0FE2B880F911D9695879597F908959B0177
S1130800AC010C9474045058BB27AA270E941B0403
S11308100C944F030E94410338F00E94480320F0D7
S113082039F49F3F19F426F40C9417030EF4E09561
S1130830E7FB0C941103E92F0E94600358F3BA17E5
S1130840620773078407950720F079F4A6F50C94E2
S113085082030EF4E0950B2EBA2FA02D0B01B901E3
S113086090010C01CA01A0011124FF27591B99F022
S1130870593F50F4503E68F11A16F040A22F232F2E
S1130880342F4427585FF3CF469537952795A7957E
S1130890F0405395C9F77EF41F16BA0B620B730B25
S11308A0840BBAF09150A1F0FF0FBB1F661F771F96
S11308B0881FC2F70EC0BA0F621F731F841F48F44B
S11308C0879577956795B795F7959E3F08F0B0CFD4
S11308D09395880F08F09927EE0F979587950895BB
S11308E00E9452020C944F030E94A5030C944F03E0
S11308F097FB072E16F4009407D077FD09D00E94C9
S11309008C0407FC05D03EF4909581959F4F089583
S1130910709561957F4F0895AA1BBB1B51E107C0D9
S1130920AA1FBB1FA617B70710F0A61BB70B881F7B
S1130930991F5A95A9F780959095BC01CD0108950A
S11309400F931F93CF93DF93009731F461157105D3
S113095019F480E090E03AC08B01EC016EE070E0A5
S113096081E090E00E94E206FC01892B91F380E88B
S113097083830115110571F01387028781E883834E
S11309808091240190912501892B21F4F093250174
S1130990E09324012097C9F0D187C08783818260C6
S11309A083838091260190912701892B71F4F09320
S11309B02701E09326018091280190912901892B38
S11309C021F4F0932901E0932801CF01DF91CF9125
S11309D01F910F910895A0E0B0E0E1EFF4E00C94D2
S11309E0E608AE014B5F5F4FFA0161917191AF016F
S11309F080912601909127010E940105E2E00C9468
S1130A000209ABE0B0E0E7E0F5E00C94D6086C0135
S1130A107B018A01FC0117821682838181FFCCC18C
S1130A20CE0101963C01F6019381F70193FD859176
S1130A3093FF81917F01882309F4BAC1853239F487
S1130A4093FD859193FF81917F01853229F4B6014D
S1130A5090E00E943C08E7CF912C212C312CFFE13F
S1130A60F315D8F08B3279F038F4803279F0833290
S1130A70A1F4232D20611DC08D3261F0803369F40F
S1130A80232D216016C0832D8260382EE32DE4606F
S1130A903E2E2AC0F32DF8601DC037FC2DC020ED7A
S1130AA0280F2A3040F08E32B9F436FC81C1232D50
S1130AB02064322E19C036FE06C08AE0989E200DAE
S1130AC01124922E11C0EAE02E9E200D1124222E14
S1130AD0F32DF0623F2E08C08C3621F4832D8068FC
S1130AE0382E02C0883641F4F70193FD859193FFB7
S1130AF081917F018111B3CF982F9F7D95549330BD
S1130B0028F40C5F1F4F9FE399830DC0833631F0A7
S1130B10833771F0833509F059C021C0F801808111
S1130B2089830E5F1F4F88248394912C530113C033
S1130B302801F2E04F0E511CF801A080B18036FE6E
S1130B4003C0692D70E002C06FEF7FEFC5010E9402
S1130B5031084C018201F32DFF773F2E16C0280186
S1130B6022E0420E511CF801A080B18036FE03C081
S1130B70692D70E002C06FEF7FEFC5010E941F086E
S1130B804C01F32DF0683F2E820133FC1BC0822DF3
S1130B9090E088169906B0F4B60180E290E00E94D5
S1130BA03C082A94F4CFF50137FC859137FE8191F6
S1130BB05F01B60190E00E943C0821102A9421E0D4
S1130BC0821A91088114910471F7E8C0843611F0F7
S1130BD0893641F5F80137FE07C060817181828151
S1130BE093810C5F1F4F08C060817181072E000C38
S1130BF0880B990B0E5F1F4FF32DFF763F2E97FF47
S1130C0009C090958095709561957F4F8F4F9F4F48
S1130C10F0683F2E2AE030E0A3010E947808882E75
S1130C20861845C0853731F4232D2F7EB22E2AE055
S1130C3030E025C0932D997FB92E8F36C1F018F47A
S1130C40883579F0B5C0803719F0883721F0B0C005
S1130C50E92FE061BE2EB4FE0DC0FB2DF460BF2E63
S1130C6009C034FE0AC0292F2660B22E06C028E02F
S1130C7030E005C020E130E002C020E132E0F801BC
S1130C80B7FE07C060817181828193810C5F1F4F21
S1130C9006C06081718180E090E00E5F1F4FA30168
S1130CA00E947808882E8618FB2DFF773F2E36FE8B
S1130CB00DC0232D2E7FA22E891458F434FE0BC0B0
S1130CC032FC09C0832D8E7EA82E05C0B82CA32C1F
S1130CD003C0B82C01C0B92CA4FE0FC0FE01E80D5E
S1130CE0F11D8081803321F49A2D997EA92E09C0AB
S1130CF0A2FE06C0B394B39404C08A2D867809F08A
S1130D00B394A3FC11C0A0FE06C0B21488F4280C4E
S1130D10922C9B180EC0B21460F4B60180E290E0ED
S1130D200E943C08B394F7CFB21418F42B1802C0F5
S1130D30982C212CA4FE10C0B60180E390E00E9400
S1130D403C08A2FE17C0A1FC03C088E790E002C0E3
S1130D5088E590E0B6010CC08A2D867859F0A1FE92
S1130D6002C08BE201C080E2A7FC8DE2B60190E0F4
S1130D700E943C08891438F4B60180E390E00E9494
S1130D803C089A94F7CF8A94F301E80DF11D808111
S1130D90B60190E00E943C088110F5CF222009F4AE
S1130DA042CEB60180E290E00E943C082A94F6CF3D
S1130DB0F6018681978102C08FEF9FEF2B96E2E1C7
S1130DC00C94F2080F931F93CF93DF93869F8001B7
S1130DD0879F100D969F100D1124C8010E94FE06D6
S1130DE0EC01009729F0A80160E070E00E942A0855
S1130DF0CE01DF91CF911F910F9108950F931F930F
S1130E00CF93DF938230910510F482E090E0E0917B
S1130E102C01F0912D0120E030E0A0E0B0E030970B
S1130E2019F1408151810281138148175907C8F093
S1130E308417950769F4109731F012960C93129762
S1130E4013961C9327C000932C0110932D0122C0EC
S1130E502115310519F04217530718F49A01BD0101
S1130E60EF01DF01F801DBCF21153105F9F0281B73
S1130E70390B2430310580F48A819B816115710519
S1130E8021F0FB019383828304C090932D0180930E
S1130E902C01FE01329644C0FE01E20FF31F819340
S1130EA0919322503109398328833AC020912A0131
S1130EB030912B01232B41F4209102013091030145
S1130EC030932B0120932A012091000130910101DC
S1130ED02115310541F42DB73EB7409104015091DD
S1130EE00501241B350BE0912A01F0912B01E21737
S1130EF0F307A0F42E1B3F0B2817390778F0AC0139
S1130F004E5F5F4F2417350748F04E0F5F1F509315
S1130F102B0140932A018193919302C0E0E0F0E019
S1130F20CF01DF91CF911F910F910895CF93DF935C
S1130F30009709F481C0FC01329713821282A091B8
S1130F402C01B0912D01109781F420813181820F01
S1130F50931F20912A0130912B012817390751F54D
S1130F60F0932B01E0932A0167C0ED0120E030E00B
S1130F70CE17DF0740F44A815B819E01411551057C
S1130F80F1F0EA01F5CFD383C28340815181840F0C
S1130F90951FC817D90759F488819981840F951F23
S1130FA00296918380838A819B8193838283211516
S1130FB0310529F4F0932D01E0932C013DC0E901A2
S1130FC0FB83EA8349915991C40FD51FEC17FD07A0
S1130FD061F480819181840F951F0296E9019983C0
S1130FE08883828193819B838A83E0E0F0E0129678
S1130FF08D919C911397009719F0FD01DC01F7CFB7
S11310008D919C9111979D012E5F3F4F820F931FED
S113101020912A0130912B012817390769F4309760
S113102029F410922D0110922C0102C01382128215
S1131030B0932B01A0932A01DF91CF910895FC0175
S11310400590615070400110D8F7809590958E0FEF
S11310509F1F0895DC0101C06D9341505040E0F79B
S11310600895FC016150704001900110D8F78095FB
S113107090958E0F9F1F08950F931F93CF93DF9327
S1131080FB01238121FD03C08FEF9FEF2CC022FFC2
S113109016C046815781248135814217530744F491
S11310A0A081B1819D012F5F3F4F318320838C93B9
S11310B0268137812F5F3F4F3783268314C08B01EE
S11310C0EC01FB010084F185E02D0995892BE1F603
S11310D0D80116968D919C911797019617969C931B
S11310E08E931697CE01DF91CF911F910F910895A2
S11310F0FA01AA27283051F1203181F1E8946F9345
S11311006E7F6E5F7F4F8F4F9F4FAF4FB1E03ED0EA
S1131110B4E03CD0670F781F891F9A1FA11D680F88
S1131120791F8A1F911DA11D6A0F711D811D911DBB
S1131130A11D20D009F468943F912AE0269F112430
S11311403019305D3193DEF6CF010895462F477094
S1131150405D4193B3E00FD0C9F7F6CF462F4F70EF
S1131160405D4A3318F0495D31FD4052419302D04D
S1131170A9F7EACFB4E0A6959795879577956795F3
S1131180BA95C9F700976105710508959B01AC01F3
S11311900A2E06945795479537952795BA95C9F71A
S11311A0620F731F841F951FA01D08952F923F92F5
S11311B04F925F926F927F928F929F92AF92BF9263
S11311C0CF92DF92EF92FF920F931F93CF93DF930F
S11311D0CDB7DEB7CA1BDB0B0FB6F894DEBF0FBE6C
S11311E0CDBF09942A88398848885F846E847D84B9
S11311F08C849B84AA84B984C884DF80EE80FD80BB
S11312000C811B81AA81B981CE0FD11D0FB6F89430
S1111210DEBF0FBECDBFED010895F894FFCFF1
S113121E00002E01200078203D20256420206F67D9
S113122E202079203D202564202020202000737466
S107123E6172740061
S9030000FC
