S01000006279676765726E322E73726563F4
S11300000C94CB010C94E8010C94E8010C94E801E5
S11300100C94E8010C94E8010C94E8010C94E801B8
S11300200C94E8010C94E8010C94E8010C94E801A8
S11300300C94E8010C94E8010C94E8010C94E80198
S11300400C94E8010C94E8010C94E8010C94E80188
S11300500C94E8010C94E8010C94E8010C94E80178
S11300600C94E8010C94E8010C94E8010C94E80168
S1130070084AD73B3BCE016E84BCBFFDC12F3D6C0B
S113008074319ABD56833DDA3D00C77F11BED9E471
S1130090BB4C3E916BAAAABE000000803F0000004A
S11300A000000000000000065F5F0600000000077B
S11300B0070007070000147F7F147F7F1400242E9D
S11300C06B6B3A120000466630180C666200307A98
S11300D04F5D377A48000407030000000000001C4D
S11300E03E63410000000041633E1C000000082AFA
S11300F03E1C1C3E2A0808083E3E0808000000A0DA
S1130100E06000000000080808080808000000007B
S11301106060000000006030180C060301003E7FA0
S1130120594D7F3E000042427F7F40400000627391
S113013059496F660000226349497F360000181C44
S113014016137F7F1000276745457D3900003C7EEC
S11301504B4979300000036371190F070000367FA3
S113016049497F360000064F49693F1E00000000E0
S11301706C6C0000000000A0EC6C00000000081C87
S113018036634100000014141414141400000041D8
S113019063361C080000020351590F0600003E7F1D
S11301A0415D5D1F1E007C7E13137E7C0000417F39
S11301B07F49497F36001C3E634141632200417FF1
S11301C07F41637F1C00417F7F495D416300417F24
S11301D07F491D0103001C3E6341517372007F7F00
S11301E008087F7F000000417F7F410000003070DD
S11301F040417F3F0100417F7F081C776300417FBE
S11302007F41406070007F7F060C067F7F007F7F08
S1130210060C187F7F001C3E6341633E1C00417F37
S11302207F49090F06001E3F21717F5E0000417F58
S11302307F19396F460026674D597B320000034110
S11302407F7F410300007F7F40407F7F00001F3F8E
S113025060603F1F00007F7F3018307F7F0063772E
S11302601C081C776300074F78784F0700006773FA
S1130270594D47637100007F7F4141000000010335
S1130280060C183060000041417F7F000000080C1C
S11302900603060C08008080808080808080000037
S11302A0030704000000207454543C784000413F8C
S11302B07F44447C3800387C44446C280000307807
S11302C048493F7F4000387C54545C180000487E05
S11302D07F490302000098BCA4A4F87C0400417F79
S11302E07F08047C780000447D7D4000000040C409
S11302F084FD7D000000417F7F10386C4400004184
S11303007F7F400000007C7C0C180C7C78007C7C97
S113031004047C780000387C44447C38000084FC6D
S1130320F8A4243C1800183C24A4F8FC8400447C61
S113033078441C180000485C5454742400000004E1
S11303403E7F442400003C7C40403C7C40001C3CFC
S113035060603C1C00003C7C6030607C3C00446C71
S11303603810386C44009CBCA0A0FC7C00004C6499
S1130370745C4C64000008083E77414100000000B2
S11303800077770000004141773E0808000002032F
S113039001030203010011241FBECFEFD4E0DEBF2E
S11303A0CDBF11E0A0E0B1E0E0E7F9E102C00590C3
S11303B00D92A43BB107D9F721E0A4EBB1E001C051
S11303C01D92AE3BB207E1F70E9438050C94B60CBF
S11303D00C9400000F931F93CF93DF93CDB7DEB738
S11303E00E9432040E94C104C857DF4F8881C85854
S11303F0D0408F93C957DF4F8881C758D0408F931F
S11304008AE891E09F938F930E9494080F900F9035
S11304100F900F9000E010E015C060E1802F0E9463
S11304207B04C80182959295907F9827807F9827B6
S113043027E030E02C0F3D1F820F931F0E94FA0427
S11304400F5F1F4FC957DF4F88819981C758D0402C
S11304500817190714F360E0809106010E949404C0
S1130460DF91CF911F910F910895EF92FF920F9317
S11304701F93CF93DF9300D000D01F92CDB7DEB788
S11304800E94EF03623019F0633071F019C080915B
S11304900601909107018130910591F001979093A5
S11304A00701809306010CC0809106019091070119
S11304B08730910529F001969093070180930601F6
S11304C0EE24E394F12C12C0602F8E2D0E947B0445
S11304D080E00E9478040F5F1F4F02C000E010E02C
S11304E0003111058CF38FEFE81AF80A88E0E8165A
S11304F0F104A4F360E0809106010E9494040F903B
S11305000F900F900F900F90DF91CF911F910F914B
S1130510FF90EF900895809106019091070108954E
S1130520CF93DF93CDB7DEB7C258D1090FB6F89495
S1130530DEBF0FBECDBF0E94D40287B38F7787BBC7
S113054088B3806888BB0E942A030E94320482E830
S1130550E8E0F1E0DE01119601900D928A95E1F751
S11305608DB79EB7825891090FB6F8949EBF0FBEFF
S11305708DBFADB7BEB7119682E8FE0131960190EA
S11305800D928A95E1F70E94EA010FB6F894DEBF56
S11305900FBECDBFCE57DF4F0FB6F894DEBF0FBEF0
S11305A0CDBFDF91CF91089581B3806281BB8FB5B8
S11305B081608FBD8FB582608FBD8EB588608EBD22
S11305C08EB580618EBD8FB58F778FBD8FB58064FA
S11305D08FBD8EB58B7F8EBD8EB58D7F8EBD8EB556
S11305E081608EBD8FB5877F8FBD1BBC81E08ABDC6
S11305F081B38F7E81BB109204181092081808955D
S11306001092001482B3807182BB8111FBCFE0E0B1
S1130610F4E160817081808190810895682F70E099
S113062080E090E00E94F00620E030E048E453E4EB
S11306300E94D40720E030E040E85BE30E94D40746
S113064020E030E048EC52E40E9466050E94B806BF
S1130650CB0108950E940003609304187093081856
S113066008958F929F92AF92BF92CF92DF92EF92B2
S1130670FF921F93CF93DF93EC017B0180910418C9
S11306800E940E036C01809108180E940E039601CB
S1130690255031092C173D078CF425E0C20ED11CDE
S11306A0CC15DD055CF49C01255031092E153F0560
S11306B02CF40596E816F9060CF479C0BE01DD0F9A
S11306C0880B990B0E94F0064B015C01B701FF0CEB
S11306D0880B990B0E94F006A50194010E94E6057F
S11306E06B017C012BED3FE049E45FE30E94C70707
S11306F018165CF424EE3BEC46E150E4C701B60165
S11307000E94450618160CF054C024EE3BEC46E15A
S113071050E4C701B6010E94C70718165CF42BED1C
S11307203FE049E450E4C701B6010E9445061816AB
S11307300CF041C024EE3BEC46E150ECC701B6019D
S11307400E944506181654F02BED3FE049E450ECA6
S1130750C701B6010E94C70718167CF124EE3BECD2
S113076046E150ECC701B6010E94C707181654F4BD
S11307702BED3FE049E45FEBC701B6010E9445065B
S11307801816ECF42BED3FE049E45FEBC701B6012A
S11307900E94C7071816B4F42BED3FE049E45FE369
S11307A0C701B6010E94450618165CF40BC014E09C
S11307B009C012E007C010E005C010E003C013E058
S11307C001C011E0812FDF91CF911F91FF90EF9035
S11307D0DF90CF90BF90AF909F908F900895EF924D
S11307E0FF920F931F93CF93DF9300D000D01F92FB
S11307F0CDB7DEB70E940003862F172F0E940E0389
S1130800082FE92E812F0E940E03182FF92E682F2E
S1130810792F802F9E2D0E943103202F3E2D412FB2
S11308205F2D682F70E080E090E00F900F900F90A4
S11308300F900F90DF91CF911F910F91FF90EF9048
S1130840089586B3882311F081E001C080E081110E
S113085003C081E090E0089580E090E008958093E3
S1130860001008958EEA0E942F0481EA0E942F044A
S11308708AED0E942F0482E10E942F0488EC0E94DA
S11308802F0488EA0E942F048FE30E942F0485ED31
S11308900E942F0480E80E942F0481E80E942F0404
S11308A080E50E942F0489ED0E942F0481E20E94BA
S11308B02F0480E20E942F0480E00E942F048BED1D
S11308C00E942F0480E30E942F048DEA0E942F04CB
S11308D080E00E942F0480E40E942F0484EA0E9496
S11308E02F0486EA0E942F048FEA0E942F040895A1
S11308F0809300120895CF93DF93C82FD62F81E2FF
S11309000E942F048D2F0E942F048FE70E942F0432
S113091082E20E942F048C2F0E942F0487E00E9401
S11309202F04DF91CF9108950E947B0488E10E94F7
S113093078048EE70E9478048EE70E9478048FEF93
S11309400E9478048FEF0E9478048EE70E94780456
S11309508EE70E94780488E10E9478040895CF937A
S1130960DF9360E00E947B04C0E0D0E004C080E03C
S11309700E9478042196C038D105CCF3DF91CF9141
S11309800895CF93DF9360E080E00E947B04C0E091
S1130990D0E004C08C2F0E94AF042196C830D1054A
S11309A0CCF360E080E00E947B04DF91CF91089556
S11309B00F931F93CF93DF938C01C0E0D0E012C05C
S11309C0D801EC91F0E0B097EE0FFF1FEE0FFF1F80
S11309D0EE0FFF1FEC0FFD1FE256FF4F84910E94A4
S11309E078042196C830D1055CF3DF91CF911F9133
S11309F00F910895EF92FF920F931F93CF93DF937C
S1130A007C01FC0101900020E9F731978F01081B5C
S1130A10190BC0E0D0E006C0C7018C0F9D1F0E94D7
S1130A20D8042196C017D107BCF3DF91CF911F9151
S1130A300F91FF90EF90089585B7806885BF80B7C8
S1130A40806280BF08955D9BFECF8CB908955F9B43
S1130A50FECF8CB1089590BD89B988E18AB98EE83A
S1130A6080BD67E275E083E295E00E94490808953D
S1130A708FE190E00E942B050E941C050E949002C9
S1130A8085E991E09F938F930E9494080F900F90B3
S1130A902FEF8FE791E0215080409040E1F700C0B4
S1130AA000C00E9435020E942104892B89F30E9410
S1130AB08B029F938F9382EA91E09F938F930E947E
S1130AC094080F900F900F900F90E2CF5058BB27CF
S1130AD0AA270E947E050C948D070E947F0738F098
S1130AE00E94860720F039F49F3F19F426F40C94F1
S1130AF055070EF4E095E7FB0C944F07E92F0E948D
S1130B009E0758F3BA17620773078407950720F006
S1130B1079F4A6F50C94C0070EF4E0950B2EBA2FC9
S1130B20A02D0B01B90190010C01CA01A0011124EF
S1130B30FF27591B99F0593F50F4503E68F11A169B
S1130B40F040A22F232F342F4427585FF3CF46952C
S1130B5037952795A795F0405395C9F77EF41F164E
S1130B60BA0B620B730B840BBAF09150A1F0FF0F18
S1130B70BB1F661F771F881FC2F70EC0BA0F621F04
S1130B80731F841F48F4879577956795B795F795F4
S1130B909E3F08F0B0CF9395880F08F09927EE0F89
S1130BA09795879508950E947F0760F080E891E00B
S1130BB009F49EEF0E94860728F040E851E071F4A2
S1130BC05EEF0CC00C9455070C94C007E92FE07835
S1130BD00E949E0740F3092E052AB1F32617370712
S1130BE04807590738F00E2E07F8E02569F0E0258C
S1130BF0E0640AC0EF6307F8009407FADB01B90167
S1130C009D01DC01CA01AD01EF930E945D060E94C3
S1130C108D070E9416065F91552339F02BED3FE0B6
S1130C2049E450FD49EC0C9467050895DF93DD27F2
S1130C30B92FBF7740E85FE31616170648075B072E
S1130C4018F4D92F0E94CC079F938F937F936F93AF
S1130C500E944108E0E7F0E00E9458070E948D07D7
S1130C602F913F914F915F910E94E707DD2351F04F
S1130C709058A2EA2AED3FE049EC5FE3D0785D2783
S1130C800E947E05DF910C948D070E942B0708F4C7
S1130C9081E008950E94860758F00E947F0740F083
S1130CA029F45F3F29F00C944F0751110C94C107AC
S1130CB00C9455070E949E0768F39923B1F35523BA
S1130CC091F3951B550BBB27AA276217730784075B
S1130CD038F09F5F5F4F220F331F441FAA1FA9F3F1
S1130CE035D00E2E3AF0E0E832D091505040E695DF
S1130CF0001CCAF72BD0FE2F29D0660F771F881F40
S1130D00BB1F261737074807AB07B0E809F0BB0B32
S1130D10802DBF01FF2793585F4F3AF09E3F510546
S1130D2078F00C944F070C94C1075F3FE4F3983EAE
S1130D30D4F3869577956795B795F7959F5FC9F72F
S1130D40880F911D9695879597F90895E1E0660FB0
S1130D50771F881FBB1F621773078407BA0720F029
S1130D60621B730B840BBA0BEE1F88F7E095089592
S1130D700E94BF066894B1110C94C10708950E94A3
S1130D80A60788F09F5798F0B92F9927B751B0F06C
S1130D90E1F0660F771F881F991F1AF0BA95C9F7FB
S1130DA014C0B13091F00E94C007B1E008950C94D2
S1130DB0C007672F782F8827B85F39F0B93FCCF385
S1130DC0869577956795B395D9F73EF49095809578
S1130DD0709561957F4F8F4F9F4F0895E89409C098
S1130DE097FB3EF490958095709561957F4F8F4F5A
S1130DF09F4F9923A9F0F92F96E9BB279395F69570
S1130E00879577956795B795F111F8CFFAF4BB0FED
S1130E1011F460FF1BC06F5F7F4F8F4F9F4F16C051
S1130E20882311F096E911C0772321F09EE8872FDB
S1130E30762F05C0662371F096E8862F70E060E097
S1130E402AF09A95660F771F881FDAF7880F969510
S1130E50879597F90895990F0008550FAA0BE0E8B4
S1130E60FEEF16161706E807F907C0F01216130668
S1130E70E407F50798F0621B730B840B950B39F4A8
S1130E800A2661F0232B242B252B21F408950A260E
S1130E9009F4A140A6958FEF811D811D089597F94E
S1130EA09F6780E870E060E008959FEF80EC08950C
S1130EB0DF93CF931F930F93FF92EF92DF927B0107
S1130EC08C01689406C0DA2EEF010E94E707FE0148
S1130ED0E894A5912591359145915591A6F3EF019B
S1130EE00E947E05FE019701A801DA9469F7DF905C
S1130EF0EF90FF900F911F91CF91DF9108950024FF
S1130F000A941616170618060906089500240A946A
S1130F1012161306140605060895092E0394000CF0
S1130F2011F4882352F0BB0F40F4BF2B11F460FF7F
S1130F3004C06F5F7F4F8F4F9F4F089557FD9058A8
S1130F40440F551F59F05F3F71F04795880F97FB89
S1130F50991F61F09F3F79F0879508951216130643
S1130F601406551FF2CF4695F1DF08C01616170672
S1130F701806991FF1CF86957105610508940895A7
S1130F80E894BB2766277727CB0197F908950E9439
S1130F902B0708F48FEF08959B01AC0160E070E02B
S1130FA080E89FE30C9445080E94E7070C948D07A2
S1130FB00E947F0738F00E94860720F0952311F0E5
S1130FC00C944F070C94550711240C94C1070E94EC
S1130FD09E0770F3959FC1F3950F50E0551F629FD4
S1130FE0F001729FBB27F00DB11D639FAA27F00D7E
S1130FF0B11DAA1F649F6627B00DA11D661F829FA5
S11310002227B00DA11D621F739FB00DA11D621F89
S1131010839FA00D611D221F749F3327A00D611DA6
S1131020231F849F600D211D822F762F6A2F112488
S11310309F5750409AF0F1F088234AF0EE0FFF1FBB
S1131040BB1F661F771F881F91505040A9F79E3F12
S1131050510580F00C944F070C94C1075F3FE4F3F3
S1131060983ED4F3869577956795B795F795E79568
S11310709F5FC1F7FE2B880F911D9695879597F971
S113108008959B01AC010C94D4070E945A060C9459
S11310908D070F931F93CF93DF93009731F461155E
S11310A0710519F480E090E03AC08B01EC016EE028
S11310B070E081E090E00E948B0AFC01892B91F39F
S11310C080E883830115110571F01387028781E895
S11310D083838091B4019091B501892B21F4F0931D
S11310E0B501E093B4012097C9F0D187C08783810B
S11310F0826083838091B6019091B701892B71F44A
S1131100F093B701E093B6018091B8019091B901D1
S1131110892B21F4F093B901E093B801CF01DF9159
S1131120CF911F910F910895A0E0B0E0EAE9F8E0B3
S11311300C948F0CAE014B5F5F4FFA01619171917A
S1131140AF018091B6019091B7010E94AA08E2E034
S11311500C94AB0CABE0B0E0E0EBF8E00C947F0C4B
S11311606C017B018A01FC0117821682838181FF55
S1131170CCC1CE0101963C01F6019381F70193FDA8
S1131180859193FF81917F01882309F4BAC1853247
S113119039F493FD859193FF81917F01853229F480
S11311A0B60190E00E94E50BE7CF912C212C312C65
S11311B0FFE1F315D8F08B3279F038F4803279F00E
S11311C08332A1F4232D20611DC08D3261F0803360
S11311D069F4232D216016C0832D8260382EE32DFF
S11311E0E4603E2E2AC0F32DF8601DC037FC2DC0EC
S11311F020ED280F2A3040F08E32B9F436FC81C13C
S1131200232D2064322E19C036FE06C08AE0989E33
S1131210200D1124922E11C0EAE02E9E200D1124DF
S1131220222EF32DF0623F2E08C08C3621F4832D3C
S11312308068382E02C0883641F4F70193FD859109
S113124093FF81917F018111B3CF982F9F7D955496
S1131250933028F40C5F1F4F9FE399830DC08336AE
S113126031F0833771F0833509F059C021C0F8019A
S1131270808189830E5F1F4F88248394912C5301AE
S113128013C02801F2E04F0E511CF801A080B18078
S113129036FE03C0692D70E002C06FEF7FEFC50119
S11312A00E94DA0B4C018201F32DFF773F2E16C00A
S11312B0280122E0420E511CF801A080B18036FEC4
S11312C003C0692D70E002C06FEF7FEFC5010E947B
S11312D0C80B4C01F32DF0683F2E820133FC1BC078
S11312E0822D90E088169906B0F4B60180E290E071
S11312F00E94E50B2A94F4CFF50137FC859137FE63
S113130081915F01B60190E00E94E50B21102A94BF
S113131021E0821A91088114910471F7E8C084369F
S113132011F0893641F5F80137FE07C060817181FB
S1131330828193810C5F1F4F08C060817181072EE9
S1131340000C880B990B0E5F1F4FF32DFF763F2E79
S113135097FF09C090958095709561957F4F8F4F49
S11313609F4FF0683F2E2AE030E0A3010E94210C39
S1131370882E861845C0853731F4232D2F7EB22E52
S11313802AE030E025C0932D997FB92E8F36C1F025
S113139018F4883579F0B5C0803719F0883721F012
S11313A0B0C0E92FE061BE2EB4FE0DC0FB2DF46089
S11313B0BF2E09C034FE0AC0292F2660B22E06C0F3
S11313C028E030E005C020E130E002C020E132E056
S11313D0F801B7FE07C060817181828193810C5F3F
S11313E01F4F06C06081718180E090E00E5F1F4F47
S11313F0A3010E94210C882E8618FB2DFF773F2E17
S113140036FE0DC0232D2E7FA22E891458F434FEEF
S11314100BC032FC09C0832D8E7EA82E05C0B82CCB
S1131420A32C03C0B82C01C0B92CA4FE0FC0FE012C
S1131430E80DF11D8081803321F49A2D997EA92E27
S113144009C0A2FE06C0B394B39404C08A2D867862
S113145009F0B394A3FC11C0A0FE06C0B21488F432
S1131460280C922C9B180EC0B21460F4B60180E2D2
S113147090E00E94E50BB394F7CFB21418F42B1844
S113148002C0982C212CA4FE10C0B60180E390E089
S11314900E94E50BA2FE17C0A1FC03C088E790E000
S11314A002C088E590E0B6010CC08A2D867859F018
S11314B0A1FE02C08BE201C080E2A7FC8DE2B6016E
S11314C090E00E94E50B891438F4B60180E390E0C3
S11314D00E94E50B9A94F7CF8A94F301E80DF11D6D
S11314E08081B60190E00E94E50B8110F5CF2220A7
S11314F009F442CEB60180E290E00E94E50B2A9402
S1131500F6CFF6018681978102C08FEF9FEF2B966D
S1131510E2E10C949B0C0F931F93CF93DF93869F70
S11315208001879F100D969F100D1124C8010E9401
S1131530A70AEC01009729F0A80160E070E00E947E
S1131540D30BCE01DF91CF911F910F9108950F938B
S11315501F93CF93DF938230910510F482E090E0E3
S1131560E091BC01F091BD0120E030E0A0E0B0E0EA
S1131570309719F14081518102811381481759072D
S1131580C8F08417950769F4109731F012960C93FC
S1131590129713961C9327C00093BC011093BD01AE
S11315A022C02115310519F04217530718F49A0186
S11315B0BD01EF01DF01F801DBCF21153105F9F0A1
S11315C0281B390B2430310580F48A819B816115F5
S11315D0710521F0FB019383828304C09093BD01C4
S11315E08093BC01FE01329644C0FE01E20FF31F5A
S11315F08193919322503109398328833AC02091F1
S1131600BA013091BB01232B41F4209102013091A6
S113161003013093BB012093BA0120910001309162
S113162001012115310541F42DB73EB74091040164
S113163050910501241B350BE091BA01F091BB01D7
S1131640E217F307A0F42E1B3F0B2817390778F095
S1131650AC014E5F5F4F2417350748F04E0F5F1FF4
S11316605093BB014093BA018193919302C0E0E08F
S1131670F0E0CF01DF91CF911F910F910895CF93A7
S1131680DF93009709F481C0FC0132971382128220
S1131690A091BC01B091BD01109781F420813181EA
S11316A0820F931F2091BA013091BB01281739078B
S11316B051F5F093BB01E093BA0167C0ED0120E05E
S11316C030E0CE17DF0740F44A815B819E0141156B
S11316D05105F1F0EA01F5CFD383C28340815181F2
S11316E0840F951FC817D90759F488819981840FED
S11316F0951F0296918380838A819B819383828341
S11317002115310529F4F093BD01E093BC013DC0DE
S1131710E901FB83EA8349915991C40FD51FEC1762
S1131720FD0761F480819181840F951F0296E90180
S113173099838883828193819B838A83E0E0F0E0AC
S113174012968D919C911397009719F0FD01DC017D
S1131750F7CF8D919C9111979D012E5F3F4F820F82
S1131760931F2091BA013091BB012817390769F4FE
S1131770309729F41092BD011092BC0102C013826B
S11317801282B093BB01A093BA01DF91CF91089567
S1131790FC010590615070400110D8F78095909538
S11317A08E0F9F1F0895DC0101C06D93415050407E
S11317B0E0F70895FC016150704001900110D8F7E2
S11317C0809590958E0F9F1F08950F931F93CF932D
S11317D0DF93FB01238121FD03C08FEF9FEF2CC01A
S11317E022FF16C046815781248135814217530751
S11317F044F4A081B1819D012F5F3F4F3183208349
S11318008C93268137812F5F3F4F3783268314C003
S11318108B01EC01FB010084F185E02D0995892BF6
S1131820E1F6D80116968D919C911797019617961B
S11318309C938E931697CE01DF91CF911F910F91B8
S11318400895FA01AA27283051F1203181F1E89452
S11318506F936E7F6E5F7F4F8F4F9F4FAF4FB1E09F
S11318603ED0B4E03CD0670F781F891F9A1FA11D9A
S1131870680F791F8A1F911DA11D6A0F711D811D9B
S1131880911DA11D20D009F468943F912AE0269F60
S113189011243019305D3193DEF6CF010895462FBF
S11318A04770405D4193B3E00FD0C9F7F6CF462FA0
S11318B04F70405D4A3318F0495D31FD4052419309
S11318C002D0A9F7EACFB4E0A695979587957795C6
S11318D06795BA95C9F700976105710508959B014D
S11318E0AC010A2E06945795479537952795BA95D6
S11318F0C9F7620F731F841F951FA01D08952F92AF
S11319003F924F925F926F927F928F929F92AF928B
S1131910BF92CF92DF92EF92FF920F931F93CF93D8
S1131920DF93CDB7DEB7CA1BDB0B0FB6F894DEBF6F
S11319300FBECDBF09942A88398848885F846E8495
S11319407D848C849B84AA84B984C884DF80EE80DF
S1131950FD800C811B81AA81B981CE0FD11D0FB6E8
S1131960F894DEBF0FBECDBFED010895F894FFCF0C
S11319700000BE01200001002A204D656E75202A5A
S1131980000000000000000056616C672031000078
S1131990000000000000000056616C672032000067
S11319A000000000000000005461626174610000E6
S11319B000000000000000007800000000000000AB
S11319C0000000000000000078000000000000009B
S11319D0000000000000000078000000000000008B
S11319E0000000000000000079000000000000007A
S11319F0000000000000000008006C656E67746859
S1131A003A20256400537461727420746573743AC7
S1131A1020004D656E752063686F6963653A202503
S1071A20640A000050
S9030000FC
