S01000006279676765726E322E73726563F4
S11300000C94B4010C94D1010C94D1010C94D10141
S11300100C94D1010C94D1010C94D1010C94D10114
S11300200C94D1010C94D1010C94D1010C94D10104
S11300300C94D1010C94D1010C94D1010C94D101F4
S11300400C94D1010C94D1010C94D1010C94D101E4
S11300500C94D1010C94D1010C94D1010C94D101D4
S11300600C94D1010C94D1010C94D1010C94D101C4
S1130070000000000000000000065F5F06000000B2
S11300800007070007070000147F7F147F7F140018
S1130090242E6B6B3A120000466630180C66620020
S11300A0307A4F5D377A48000407030000000000EF
S11300B0001C3E63410000000041633E1C00000040
S11300C0082A3E1C1C3E2A0808083E3E0808000078
S11300D000A0E0600000000008080808080800000C
S11300E000006060000000006030180C060301008E
S11300F03E7F594D7F3E000042427F7F40400000DA
S1130100627359496F660000226349497F360000D3
S1130110181C16137F7F1000276745457D390000A2
S11301203C7E4B4979300000036371190F070000CE
S1130130367F49497F360000064F49693F1E00005B
S113014000006C6C0000000000A0EC6C00000000DB
S1130150081C366341000000141414141414000025
S1130160004163361C080000020351590F060000C9
S11301703E7F415D5D1F1E007C7E13137E7C00006C
S1130180417F7F49497F36001C3E63414163220021
S1130190417F7F41637F1C00417F7F495D41630054
S11301A0417F7F491D0103001C3E6341517372006E
S11301B07F7F08087F7F000000417F7F41000000AF
S11301C0307040417F3F0100417F7F081C7763000E
S11301D0417F7F41406070007F7F060C067F7F0077
S11301E07F7F060C187F7F001C3E6341633E1C002A
S11301F0417F7F49090F06001E3F21717F5E000089
S1130200417F7F19396F460026674D597B320000C4
S113021003417F7F410300007F7F40407F7F0000D8
S11302201F3F60603F1F00007F7F3018307F7F00DA
S113023063771C081C776300074F78784F0700002A
S11302406773594D47637100007F7F41410000008F
S11302500103060C183060000041417F7F0000005C
S1130260080C0603060C0800808080808080808053
S11302700000030704000000207454543C7840003C
S1130280413F7F44447C3800387C44446C2800005F
S1130290307848493F7F4000387C54545C18000053
S11302A0487E7F490302000098BCA4A4F87C0400A3
S11302B0417F7F08047C780000447D7D400000007D
S11302C040C484FD7D000000417F7F10386C4400F1
S11302D000417F7F400000007C7C0C180C7C78007F
S11302E07C7C04047C780000387C44447C38000026
S11302F084FCF8A4243C1800183C24A4F8FC8400D2
S1130300447C78441C180000485C54547424000055
S113031000043E7F442400003C7C40403C7C400080
S11303201C3C60603C1C00003C7C6030607C3C00F9
S1130330446C3810386C44009CBCA0A0FC7C0000C9
S11303404C64745C4C64000008083E774141000032
S113035000000077770000004141773E0808000064
S1130360020301030203010011241FBECFEFD4E0F6
S1130370DEBFCDBF13E0A0E0B1E0EEE4F4E102C0E3
S113038005900D92AC34B107D9F723E0ACE4B3E0A7
S113039001C01D92A635B207E1F70E9499050C949D
S11303A0250A0C9400000E94790263EC8AE20E9400
S11303B0950261EB89E20E94950265E088E20E9461
S11303C0950240E460EE8FE00E94B1020895EF923E
S11303D0FF920F931F93CF93DF93CDB7DEB72B9785
S11303E00FB6F894DEBF0FBECDBFE982FA820B834D
S11303F01C832D833E834F83588769877A878B8735
S11304006E2D81E30E9495026A8182E30E94950227
S1130410FB806F2D85E30E94950200E010E00DC083
S1130420E4E0F0E0EC0FFD1FE00FF11F608186E3D4
S1130430800F0E9495020F5F1F4F8F2D90E00817C9
S1130440190774F30E94A9022B960FB6F894DEBF25
S11304500FBECDBFDF91CF911F910F91FF90EF9011
S11304600895FF920F931F93CF93DF938C0181E63E
S11304700E946702F801808382E60E946702F80105
S1130480818385E60E946702F82EF8018283C0E02A
S1130490D0E009C08C2F8A590E946702F801EC0F42
S11304A0FD1F838321968F2D90E0C817D90794F3FD
S11304B0C801DF91CF911F910F91FF9008950E9481
S11304C0070380EC0E9420030E940B030895CF933E
S11304D0C82F0E94070383E00E9420038C2F0E94F0
S11304E020030E942403C82F0E940B038C2FCF915A
S11304F00895CF930E940F030E945F028EE00E9432
S11305006702C82F8FE00E946702C07EC03851F096
S113051086E991E09F938F930E9403060F900F90BA
S113052081E001C080E0CF910895CF93DF93D82F6D
S1130530C62F0E94070382E00E9420038D2F0E9491
S113054020038C2F0E9420030E940B03DF91CF9184
S113055008950E94070381E80E9420030E940B0370
S11305600895FF920F931F93CF93DF93CDB7DEB718
S11305702C970FB6F894DEBF0FBECDBF182FF62E02
S1130580042F0E9407038CE0E8E0F1E0DE011196FD
S113059001900D928A95E1F780E090E01AC0E1E0C5
S11305A0F0E0EC0FFD1FE80FF91F2081211310C0AC
S11305B085E00E942003812F0E9420038F2D0E943A
S11305C02003802F0E9420030E940B0381E005C0BA
S11305D001968C3091051CF380E081110CC01F92B0
S11305E01F938BEC91E09F938F930E9403060F90CF
S11305F00F900F900F902C960FB6F894DEBF0FBE9D
S1130600CDBFDF91CF911F910F91FF90089588B3D3
S11306108F7E88BB089588B3806188BB089587B3B3
S1130620806B87BB87B38F7B87BB81E58DB98DB129
S1130630877F8DB98DB18B7F8DB90E940B0308958F
S11306408FB9779BFECF089581E10E9420038FB17B
S113065008950F931F93CF93DF93CDB7DEB70E9416
S1130660A5030E94340400E010E015C060E1802F6F
S11306700E94EE03C80182959295907F9827807F0F
S1130680982727E030E02C0F3D1F820F931F0E9414
S11306906D040F5F1F4FC957DF4F88819981C75879
S11306A0D0400817190714F360E0809106010E94F6
S11306B00704DF91CF911F910F910895CF93DF939A
S11306C0CDB7DEB7C258D1090FB6F894DEBF0FBE5E
S11306D0CDBF0E948F0487B38E7F87BB88B38160B0
S11306E088BB0E94C9040E94A50382E8E4E1F1E00A
S11306F0DE01119601900D928A95E1F78DB79EB7B0
S1130700825891090FB6F8949EBF0FBE8DBFADB746
S1130710BEB7119682E8FE01319601900D928A953A
S1130720E1F70E9429030FB6F894DEBF0FBECDBFD8
S1130730CE57DF4F0FB6F894DEBF0FBECDBFDF91AB
S1130740CF9108958093001008958EEA0E94A20329
S113075081EA0E94A2038AED0E94A20382E10E9420
S1130760A20388EC0E94A20388EA0E94A2038FE3FA
S11307700E94A20385ED0E94A20380E80E94A203C6
S113078081E80E94A20380E50E94A20389ED0E94F1
S1130790A20381E20E94A20380E20E94A20380E0FD
S11307A00E94A2038BED0E94A20380E30E94A20395
S11307B08DEA0E94A20380E00E94A20380E40E94CA
S11307C0A20384EA0E94A20386EA0E94A2038FEA9B
S11307D00E94A2030895809300120895CF93DF939B
S11307E0C82FD62F81E20E94A2038D2F0E94A2035C
S11307F08FE70E94A20382E20E94A2038C2F0E9430
S1130800A20387E00E94A203DF91CF9108950E9482
S1130810EE0388E10E94EB038EE70E94EB038EE770
S11308200E94EB038FEF0E94EB038FEF0E94EB0318
S11308308EE70E94EB038EE70E94EB0388E10E949F
S1130840EB030895CF93DF9360E00E94EE03C0E0D2
S1130850D0E004C080E00E94EB032196C038D105AB
S1130860CCF3DF91CF910895CF93DF9360E080E0E4
S11308700E94EE03C0E0D0E004C08C2F0E9422044A
S11308802196C830D105CCF360E080E00E94EE03ED
S1130890DF91CF9108950F931F93CF93DF938C0132
S11308A0C0E0D0E012C0D801EC91F0E0B097EE0FB8
S11308B0FF1FEE0FFF1FEE0FFF1FEC0FFD1FE05990
S11308C0FF4F84910E94EB032196C830D1055CF35D
S11308D0DF91CF911F910F910895EF92FF920F93A3
S11308E01F93CF93DF937C01FC0101900020E9F773
S11308F031978F01081B190BC0E0D0E006C0C70177
S11309008C0F9D1F0E944B042196C017D107BCF386
S1130910DF91CF911F910F91FF90EF90089581B3D4
S1130920806281BB8FB581608FBD8FB582608FBDC2
S11309308EB588608EBD8EB580618EBD8FB58F7784
S11309408FBD8FB580648FBD8EB58B7F8EBD8EB508
S11309508D7F8EBD8EB581608EBD8FB5877F8FBD37
S11309601BBC81E08ABD81B38F7E81BB10920418C9
S11309701092081808951092001482B3807182BBFB
S11309808111FBCFE0E0F4E160817081808190818E
S113099008950E94BB046093041870930818089586
S11309A085B7806885BF80B7806280BF0895EF9265
S11309B0FF920F931F93CF93DF93CDB7DEB7669764
S11309C00FB6F894DEBF0FBECDBF8AEA898380E1FB
S11309D08A8381E08B838CEC8C830E94D301E98031
S11309E0FA800B811C812D813E814F815885698558
S11309F07A858B850E94E7012FEF8FEF9EE02150CF
S1130A0080409040E1F700C00000CE010C960E94A7
S1130A1031028F851F928F9385ED92E09F938F9380
S1130A200E9403060F900F900F900F9066960FB6DA
S1130A30F894DEBF0FBECDBFDF91CF911F910F9110
S1130A40FF90EF9008950F931F93CF93DF930E942D
S1130A500F030E94070382E68FB92FEF3FEF9EE05A
S1130A60215030409040E1F700C000001F928F9366
S1130A700AE013E01F930F930E9403068FB11F92A5
S1130A808F93C9E1D3E0DF93CF930E94030681E7FC
S1130A908FB91F928F931F930F930E9403068FB1F8
S1130AA01F928F93DF93CF930E94030681E68FB941
S1130AB01F928F931F930F930E9403068FB11F926F
S1130AC08F93DF93CF930E9403068CE68FB91F9216
S1130AD08F931F930F930E9403068FB11F928F93DE
S1130AE0DF93CF930E9403062DB73EB7205E3F4F9E
S1130AF00FB6F8943EBF0FBE2DBF0E940B03DF91CB
S1130B00CF911F910F9108955D9BFECF8CB90895ED
S1130B105F9BFECF8CB1089590BD89B988E18AB9F5
S1130B208EE880BD68E875E084E895E00E94B80529
S1130B3008958FE190E00E948C0585E293E09F93F5
S1130B408F930E9403060E94D0040E945E030E94B9
S1130B50D7040E94230589E393E09F938F930E9417
S1130B6003060F900F900F900F9080E090E008958F
S1130B700F931F93CF93DF93009731F461157105A1
S1130B8019F480E090E03AC08B01EC016EE070E073
S1130B9081E090E00E94FA07FC01892B91F380E840
S1130BA083830115110571F01387028781E883831C
S1130BB080914C0390914D03892B21F4F0934D03C4
S1130BC0E0934C032097C9F0D187C087838182606A
S1130BD0838380914E0390914F03892B71F4F0939A
S1130BE04F03E0934E038091500390915103892B5E
S1130BF021F4F0935103E0935003CF01DF91CF919F
S1130C001F910F910895A0E0B0E0E9E0F6E00C94A4
S1130C10FE09AE014B5F5F4FFA0161917191AF0123
S1130C2080914E0390914F030E941906E2E00C94C8
S1130C301A0AABE0B0E0EFE1F6E00C94EE096C01C7
S1130C407B018A01FC0117821682838181FFCCC15A
S1130C50CE0101963C01F6019381F70193FD859144
S1130C6093FF81917F01882309F4BAC1853239F455
S1130C7093FD859193FF81917F01853229F4B6011B
S1130C8090E00E945409E7CF912C212C312CFFE1F4
S1130C90F315D8F08B3279F038F4803279F083325E
S1130CA0A1F4232D20611DC08D3261F0803369F4DD
S1130CB0232D216016C0832D8260382EE32DE4603D
S1130CC03E2E2AC0F32DF8601DC037FC2DC020ED48
S1130CD0280F2A3040F08E32B9F436FC81C1232D1E
S1130CE02064322E19C036FE06C08AE0989E200D7C
S1130CF01124922E11C0EAE02E9E200D1124222EE2
S1130D00F32DF0623F2E08C08C3621F4832D8068C9
S1130D10382E02C0883641F4F70193FD859193FF84
S1130D2081917F018111B3CF982F9F7D955493308A
S1130D3028F40C5F1F4F9FE399830DC0833631F075
S1130D40833771F0833509F059C021C0F8018081DF
S1130D5089830E5F1F4F88248394912C530113C001
S1130D602801F2E04F0E511CF801A080B18036FE3C
S1130D7003C0692D70E002C06FEF7FEFC5010E94D0
S1130D8049094C018201F32DFF773F2E16C028013B
S1130D9022E0420E511CF801A080B18036FE03C04F
S1130DA0692D70E002C06FEF7FEFC5010E94370923
S1130DB04C01F32DF0683F2E820133FC1BC0822DC1
S1130DC090E088169906B0F4B60180E290E00E94A3
S1130DD054092A94F4CFF50137FC859137FE8191AB
S1130DE05F01B60190E00E94540921102A9421E089
S1130DF0821A91088114910471F7E8C0843611F0C5
S1130E00893641F5F80137FE07C06081718182811E
S1130E1093810C5F1F4F08C060817181072E000C05
S1130E20880B990B0E5F1F4FF32DFF763F2E97FF14
S1130E3009C090958095709561957F4F8F4F9F4F16
S1130E40F0683F2E2AE030E0A3010E949009882E2A
S1130E50861845C0853731F4232D2F7EB22E2AE023
S1130E6030E025C0932D997FB92E8F36C1F018F448
S1130E70883579F0B5C0803719F0883721F0B0C0D3
S1130E80E92FE061BE2EB4FE0DC0FB2DF460BF2E31
S1130E9009C034FE0AC0292F2660B22E06C028E0FD
S1130EA030E005C020E130E002C020E132E0F8018A
S1130EB0B7FE07C060817181828193810C5F1F4FEF
S1130EC006C06081718180E090E00E5F1F4FA30136
S1130ED00E949009882E8618FB2DFF773F2E36FE40
S1130EE00DC0232D2E7FA22E891458F434FE0BC07E
S1130EF032FC09C0832D8E7EA82E05C0B82CA32CED
S1130F0003C0B82C01C0B92CA4FE0FC0FE01E80D2B
S1130F10F11D8081803321F49A2D997EA92E09C078
S1130F20A2FE06C0B394B39404C08A2D867809F057
S1130F30B394A3FC11C0A0FE06C0B21488F4280C1C
S1130F40922C9B180EC0B21460F4B60180E290E0BB
S1130F500E945409B394F7CFB21418F42B1802C0AA
S1130F60982C212CA4FE10C0B60180E390E00E94CE
S1130F705409A2FE17C0A1FC03C088E790E002C098
S1130F8088E590E0B6010CC08A2D867859F0A1FE60
S1130F9002C08BE201C080E2A7FC8DE2B60190E0C2
S1130FA00E945409891438F4B60180E390E00E9449
S1130FB054099A94F7CF8A94F301E80DF11D8081C6
S1130FC0B60190E00E9454098110F5CF222009F463
S1130FD042CEB60180E290E00E9454092A94F6CFF2
S1130FE0F6018681978102C08FEF9FEF2B96E2E195
S1130FF00C940A0A0F931F93CF93DF93869F80016B
S1131000879F100D969F100D1124C8010E94160889
S1131010EC01009729F0A80160E070E00E94420909
S1131020CE01DF91CF911F910F9108950F931F93DC
S1131030CF93DF938230910510F482E090E0E09149
S11310405403F091550320E030E0A0E0B0E0309785
S113105019F1408151810281138148175907C8F061
S11310608417950769F4109731F012960C93129730
S113107013961C9327C0009354031093550322C066
S11310802115310519F04217530718F49A01BD01CF
S1131090EF01DF01F801DBCF21153105F9F0281B41
S11310A0390B2430310580F48A819B8161157105E7
S11310B021F0FB019383828304C0909355038093B2
S11310C05403FE01329644C0FE01E20FF31F8193E4
S11310D0919322503109398328833AC020915203D5
S11310E030915303232B41F42091020130910301E9
S11310F03093530320935203209100013091010156
S11311002115310541F42DB73EB7409104015091AA
S11311100501241B350BE0915203F0915303E217B0
S1131120F307A0F42E1B3F0B2817390778F0AC0106
S11311304E5F5F4F2417350748F04E0F5F1F5093E3
S11311405303409352038193919302C0E0E0F0E093
S1131150CF01DF91CF911F910F910895CF93DF932A
S1131160009709F481C0FC01329713821282A09186
S11311705403B0915503109781F420813181820F7B
S1131180931F20915203309153032817390751F5C7
S1131190F0935303E093520367C0ED0120E030E085
S11311A0CE17DF0740F44A815B819E01411551054A
S11311B0F1F0EA01F5CFD383C28340815181840FDA
S11311C0951FC817D90759F488819981840F951FF1
S11311D00296918380838A819B81938382832115E4
S11311E0310529F4F0935503E09354033DC0E9011C
S11311F0FB83EA8349915991C40FD51FEC17FD076E
S113120061F480819181840F951F0296E90199838D
S11312108883828193819B838A83E0E0F0E0129645
S11312208D919C911397009719F0FD01DC01F7CF84
S11312308D919C9111979D012E5F3F4F820F931FBB
S113124020915203309153032817390769F43097DA
S113125029F4109255031092540302C0138212828F
S1131260B0935303A0935203DF91CF910895FC01EF
S11312700590615070400110D8F7809590958E0FBD
S11312809F1F0895DC0101C06D9341505040E0F769
S11312900895FC016150704001900110D8F78095C9
S11312A090958E0F9F1F08950F931F93CF93DF93F5
S11312B0FB01238121FD03C08FEF9FEF2CC022FF90
S11312C016C046815781248135814217530744F45F
S11312D0A081B1819D012F5F3F4F318320838C9387
S11312E0268137812F5F3F4F3783268314C08B01BC
S11312F0EC01FB010084F185E02D0995892BE1F6D1
S1131300D80116968D919C911797019617969C93E8
S11313108E931697CE01DF91CF911F910F9108956F
S1131320FA01AA27283051F1203181F1E8946F9312
S11313306E7F6E5F7F4F8F4F9F4FAF4FB1E03ED0B8
S1131340B4E03CD0670F781F891F9A1FA11D680F56
S1131350791F8A1F911DA11D6A0F711D811D911D89
S1131360A11D20D009F468943F912AE0269F1124FE
S11313703019305D3193DEF6CF010895462F477062
S1131380405D4193B3E00FD0C9F7F6CF462F4F70BD
S1131390405D4A3318F0495D31FD4052419302D01B
S11313A0A9F7EACFB4E0A6959795879577956795C1
S11313B0BA95C9F700976105710508959B01AC01C1
S11313C00A2E06945795479537952795BA95C9F7E8
S11313D0620F731F841F951FA01D08952F923F92C3
S11313E04F925F926F927F928F929F92AF92BF9231
S11313F0CF92DF92EF92FF920F931F93CF93DF93DD
S1131400CDB7DEB7CA1BDB0B0FB6F894DEBF0FBE39
S1131410CDBF09942A88398848885F846E847D8486
S11314208C849B84AA84B984C884DF80EE80FD8088
S11314300C811B81AA81B981CE0FD11D0FB6F894FE
S1111440DEBF0FBECDBFED010895F894FFCFBF
S113144E0000560320000100304050607028292A05
S113145E2B2C2D0F2A204D656E75202A00000000BE
S113146E000000004D6178652D6D616E646167004A
S113147E000000005069726261646574000000002F
S113148E00000000546162617461000000000000FD
S113149E00000000436176612D73F86E646167008D
S11314AE000000004279676765726E206C6162000D
S11314BE00000000780000000000000000000000A2
S11314CE0000000079000000000000000000000091
S11314DE0000000008004D43503235313520697349
S11314EE204E4F5420696E20636F6E666967757265
S11314FE6174696F6E206D6F6465206166746572C8
S113150E20726573657420210A0D00596F7520636E
S113151E616E206E6F74206269742D6D6F646966DE
S113152E79207265676973746572202564200A00D8
S113153E5374617274696E67205352414D20746501
S113154E73742E2E2E005772697465207068617341
S113155E65206572726F723A206578745F72616D80
S113156E5B2534645D203D20253032582028736875
S113157E6F756C642062652025303258290A00523A
S113158E657472696576616C207068617365206537
S113159E72726F723A206578745F72616D5B253476
S11315AE645D203D2025303258202873686F756C99
S11315BE642062652025303258290A005352414D69
S11315CE207465737420636F6D706C65746564202C
S11315DE77697468200A253464206572726F727399
S11315EE20696E2077726974652070686173652056
S11315FE616E64200A253464206572726F727320E2
S113160E696E2072657472696576616C20706861AA
S113161E73650A0A0052656369657665645F6D6574
S113162E73736167653A202564200A202D2D2D2DB4
S113163E2D2D2D2D2D2D2D2D2D2D2D2D2D2D2D2DC8
S113164E2D2D2D2D2D2D200A0D006E6577446174E0
S113165E613A202564200A0D00535044523A202545
S113166E64200A0D000D0A0A0A0A5374617274206A
S113167E746573743A200A0D000D0A0A0A536C75C8
S10F168E747420746573743A200A0D0013
S9030000FC
