:100000000C9438000C9455000C9455000C94550039
:100010000C9455000C9455000C9455000C9455000C
:100020000C9455000C9455000C9455000C945500FC
:100030000C9455000C9455000C9455000C945500EC
:100040000C9455000C9455000C9455000C945500DC
:100050000C9455000C9455000C9455000C945500CC
:100060000C9455000C9455000C9455000C945500BC
:1000700011241FBECFEFD4E0DEBFCDBF13E0A0E060
:10008000B1E0E6ECFEE002C005900D92AA34B107A3
:10009000D9F723E0AAE4B3E001C01D92A435B2076A
:1000A000E1F70E94D5020C9461070C9400000E94B5
:1000B000FD0063EC8AE20E94290161EB89E20E9463
:1000C000290165E088E20E94290140E460EE8FE0AA
:1000D0000E9445010895EF92FF920F931F93CF93D3
:1000E000DF93CDB7DEB72B970FB6F894DEBF0FBE08
:1000F000CDBFE982FA820B831C832D833E834F831D
:10010000588769877A878B876E2D81E30E94290142
:100110006A8182E30E942901FB806F2D85E30E94A2
:10012000290100E010E00DC0E4E0F0E0EC0FFD1F5D
:10013000E00FF11F608186E3800F0E9429010F5FAD
:100140001F4F8F2D90E00817190774F30E943D018F
:100150002B960FB6F894DEBF0FBECDBFDF91CF91C7
:100160001F910F91FF90EF900895FF920F931F93AF
:10017000CF93DF938C0181E60E94EB00F80180832E
:1001800082E60E94EB00F801818385E60E94EB0085
:10019000F82EF8018283C0E0D0E009C08C2F8A5984
:1001A0000E94EB00F801EC0FFD1F838321968F2D39
:1001B00090E0C817D90794F3C801DF91CF911F9140
:1001C0000F91FF9008950E949B0180EC0E94D10145
:1001D0000E949F010895CF93C82F0E949B0183E046
:1001E0000E94D1018C2F0E94D1010E941E02C82FB3
:1001F0000E949F018C2FCF910895CF930E94A3015D
:100200000E94E3008EE00E94EB00C82F8FE00E9466
:10021000EB001F928F931F92CF9382E191E09F9307
:100220008F930E943F03C07E0F900F900F900F900E
:100230000F900F90C03851F08DE291E09F938F9313
:100240000E943F030F900F9081E001C080E0CF91AA
:100250000895CF93DF93D82FC62F0E949B0182E091
:100260000E94D1018D2F0E94D1018C2F0E94D101BB
:100270000E949F01DF91CF9108950E949B0181E828
:100280000E94D1010E949F010895FF920F931F9336
:10029000CF93DF93CDB7DEB72C970FB6F894DEBFC0
:1002A0000FBECDBF182FF62E042F0E949B018CE0AD
:1002B000E6E0F1E0DE01119601900D928A95E1F7FA
:1002C00080E090E01AC0E1E0F0E0EC0FFD1FE80FE5
:1002D000F91F2081211310C085E00E94D101812FD8
:1002E0000E94D1018F2D0E94D101802F0E94D10147
:1002F0000E949F0181E005C001968C3091051CF39E
:1003000080E081110CC01F921F9382E691E09F93C1
:100310008F930E943F030F900F900F900F902C9699
:100320000FB6F894DEBF0FBECDBFDF91CF911F9106
:100330000F91FF90089588B38F7E88BB089588B38E
:10034000806188BB089517BA18BA1DB887B3806B4F
:1003500087BB87B38F7B87BB81E58DB98DB1877FE5
:100360008DB98DB18B7F8DB90E949F013FB128B3AC
:100370009DB187B31F923F931F922F931F929F931C
:100380001F928F9387E891E09F938F930E943F0382
:100390008DB79EB70A960FB6F8949EBF0FBE8DBF5D
:1003A0000895CF93C82F8FB11F928F9382EB91E066
:1003B0009F938F930E943F03CFB91F92CF9387ECF7
:1003C00091E09F938F930E943F038FB11F928F9371
:1003D00082ED91E09F938F930E943F032FE38DE086
:1003E00093E0215080409040E1F700C000008DB7BD
:1003F0009EB70C960FB6F8949EBF0FBE8DBF0DC072
:100400008EB11F928F938DED91E09F938F930E94F9
:100410003F030F900F900F900F90779BF1CF8EB10D
:100420001F928F9380EF91E09F938F930E943F03E1
:100430000F900F900F900F90CF91089581E10E943F
:10044000D1018FB1089585B7806885BF80B780627C
:1004500080BF0895EF92FF920F931F93CF93DF9386
:10046000CDB7DEB766970FB6F894DEBF0FBECDBF2F
:100470008AEA898380E18A8381E08B838CEC8C8398
:100480000E945700E980FA800B811C812D813E81FA
:100490004F81588569857A858B850E946B00CE01D6
:1004A0000C960E94B5008F851F928F9385EE92E087
:1004B0009F938F930E943F030F900F900F900F9088
:1004C00066960FB6F894DEBF0FBECDBFDF91CF9119
:1004D0001F910F91FF90EF9008950F931F93CF936B
:1004E000DF930E94A30182E68FB91F928F930AE1E6
:1004F00013E01F930F930E943F038FB11F928F93BE
:10050000C9E2D3E0DF93CF930E943F0381E78FB925
:100510001F928F931F930F930E943F038FB11F92DF
:100520008F93DF93CF930E943F0381E68FB91F9291
:100530008F931F930F930E943F038FB11F928F934E
:10054000DF93CF930E943F038CE68FB91F928F9366
:100550001F930F930E943F038FB11F928F93DF93DE
:10056000CF930E943F038DB79EB780960FB6F89445
:100570009EBF0FBE8DBFDF91CF911F910F91089548
:100580005D9BFECF8CB908955F9BFECF8CB1089523
:1005900090BD89B988E18AB98EE880BD64EC72E0CB
:1005A00080EC92E00E94F4020895CF93DF938FE1F4
:1005B00090E00E94C802C5E3D3E0DF93CF930E948E
:1005C0003F030E942302DF93CF930E943F030E94C8
:1005D0002A020E946D020F900F900F900F9080E002
:1005E00090E0DF91CF9108950F931F93CF93DF9306
:1005F000009731F46115710519F480E090E03AC07C
:100600008B01EC016EE070E081E090E00E94360525
:10061000FC01892B91F380E883830115110571F0AA
:100620001387028781E8838380914A0390914B036B
:10063000892B21F4F0934B03E0934A032097C9F0F0
:10064000D187C08783818260838380914C0390919E
:100650004D03892B71F4F0934D03E0934C0380918B
:100660004E0390914F03892B21F4F0934F03E093B5
:100670004E03CF01DF91CF911F910F910895A0E01C
:10068000B0E0E5E4F3E00C943A07AE014B5F5F4F56
:10069000FA0161917191AF0180914C0390914D03EA
:1006A0000E945503E2E00C945607ABE0B0E0EBE5A6
:1006B000F3E00C942A076C017B018A01FC0117828C
:1006C0001682838181FFCCC1CE0101963C01F601E7
:1006D0009381F70193FD859193FF81917F01882399
:1006E00009F4BAC1853239F493FD859193FF819164
:1006F0007F01853229F4B60190E00E949006E7CF91
:10070000912C212C312CFFE1F315D8F08B3279F0AC
:1007100038F4803279F08332A1F4232D20611DC09A
:100720008D3261F0803369F4232D216016C0832D52
:100730008260382EE32DE4603E2E2AC0F32DF8604F
:100740001DC037FC2DC020ED280F2A3040F08E321E
:10075000B9F436FC81C1232D2064322E19C036FE37
:1007600006C08AE0989E200D1124922E11C0EAE066
:100770002E9E200D1124222EF32DF0623F2E08C054
:100780008C3621F4832D8068382E02C0883641F4DF
:10079000F70193FD859193FF81917F018111B3CF83
:1007A000982F9F7D9554933028F40C5F1F4F9FE343
:1007B00099830DC0833631F0833771F0833509F0AA
:1007C00059C021C0F801808189830E5F1F4F8824A2
:1007D0008394912C530113C02801F2E04F0E511C59
:1007E000F801A080B18036FE03C0692D70E002C020
:1007F0006FEF7FEFC5010E9485064C018201F32D4A
:10080000FF773F2E16C0280122E0420E511CF8014E
:10081000A080B18036FE03C0692D70E002C06FEF8A
:100820007FEFC5010E9473064C01F32DF0683F2E47
:10083000820133FC1BC0822D90E088169906B0F42B
:10084000B60180E290E00E9490062A94F4CFF50170
:1008500037FC859137FE81915F01B60190E00E94DF
:10086000900621102A9421E0821A910881149104A3
:1008700071F7E8C0843611F0893641F5F80137FE8A
:1008800007C060817181828193810C5F1F4F08C016
:1008900060817181072E000C880B990B0E5F1F4F32
:1008A000F32DFF763F2E97FF09C0909580957095A8
:1008B00061957F4F8F4F9F4FF0683F2E2AE030E0C9
:1008C000A3010E94CC06882E861845C0853731F4D6
:1008D000232D2F7EB22E2AE030E025C0932D997F64
:1008E000B92E8F36C1F018F4883579F0B5C080374D
:1008F00019F0883721F0B0C0E92FE061BE2EB4FEB8
:100900000DC0FB2DF460BF2E09C034FE0AC0292F94
:100910002660B22E06C028E030E005C020E130E0BD
:1009200002C020E132E0F801B7FE07C060817181AA
:10093000828193810C5F1F4F06C06081718180E0CE
:1009400090E00E5F1F4FA3010E94CC06882E8618F0
:10095000FB2DFF773F2E36FE0DC0232D2E7FA22EBE
:10096000891458F434FE0BC032FC09C0832D8E7EEE
:10097000A82E05C0B82CA32C03C0B82C01C0B92CDC
:10098000A4FE0FC0FE01E80DF11D8081803321F42B
:100990009A2D997EA92E09C0A2FE06C0B394B394E5
:1009A00004C08A2D867809F0B394A3FC11C0A0FE80
:1009B00006C0B21488F4280C922C9B180EC0B214F6
:1009C00060F4B60180E290E00E949006B394F7CF05
:1009D000B21418F42B1802C0982C212CA4FE10C0BD
:1009E000B60180E390E00E949006A2FE17C0A1FC31
:1009F00003C088E790E002C088E590E0B6010CC033
:100A00008A2D867859F0A1FE02C08BE201C080E2F7
:100A1000A7FC8DE2B60190E00E949006891438F49C
:100A2000B60180E390E00E9490069A94F7CF8A94F2
:100A3000F301E80DF11D8081B60190E00E9490065F
:100A40008110F5CF222009F442CEB60180E290E079
:100A50000E9490062A94F6CFF6018681978102C003
:100A60008FEF9FEF2B96E2E10C9446070F931F93B5
:100A7000CF93DF93869F8001879F100D969F100D67
:100A80001124C8010E945205EC01009729F0A80129
:100A900060E070E00E947E06CE01DF91CF911F9151
:100AA0000F9108950F931F93CF93DF938230910599
:100AB00010F482E090E0E0915203F091530320E0C3
:100AC00030E0A0E0B0E0309719F14081518102811F
:100AD000138148175907C8F08417950769F41097D0
:100AE00031F012960C93129713961C9327C0009323
:100AF00052031093530322C02115310519F04217F8
:100B0000530718F49A01BD01EF01DF01F801DBCFB3
:100B100021153105F9F0281B390B2430310580F4FB
:100B20008A819B816115710521F0FB01938382838A
:100B300004C09093530380935203FE01329644C045
:100B4000FE01E20FF31F8193919322503109398303
:100B500028833AC02091500330915103232B41F454
:100B600020910201309103013093510320935003EF
:100B700020910001309101012115310541F42DB77B
:100B80003EB74091040150910501241B350BE091C3
:100B90005003F0915103E217F307A0F42E1B3F0B13
:100BA0002817390778F0AC014E5F5F4F24173507DF
:100BB00048F04E0F5F1F50935103409350038193B1
:100BC000919302C0E0E0F0E0CF01DF91CF911F915F
:100BD0000F910895CF93DF93009709F481C0FC0132
:100BE000329713821282A0915203B091530310974F
:100BF00081F420813181820F931F20915003309125
:100C000051032817390751F5F0935103E09350032E
:100C100067C0ED0120E030E0CE17DF0740F44A81E5
:100C20005B819E0141155105F1F0EA01F5CFD383B7
:100C3000C28340815181840F951FC817D90759F489
:100C400088819981840F951F0296918380838A8180
:100C50009B81938382832115310529F4F0935303FB
:100C6000E09352033DC0E901FB83EA834991599126
:100C7000C40FD51FEC17FD0761F480819181840FAB
:100C8000951F0296E90199838883828193819B83D2
:100C90008A83E0E0F0E012968D919C911397009783
:100CA00019F0FD01DC01F7CF8D919C9111979D0109
:100CB0002E5F3F4F820F931F2091500330915103BD
:100CC0002817390769F4309729F4109253031092CA
:100CD000520302C013821282B0935103A0935003B7
:100CE000DF91CF910895FC01059061507040011093
:100CF000D8F7809590958E0F9F1F0895DC0101C055
:100D00006D9341505040E0F70895FC0161507040F0
:100D100001900110D8F7809590958E0F9F1F089530
:100D20000F931F93CF93DF93FB01238121FD03C01A
:100D30008FEF9FEF2CC022FF16C046815781248180
:100D400035814217530744F4A081B1819D012F5F83
:100D50003F4F318320838C93268137812F5F3F4F14
:100D60003783268314C08B01EC01FB010084F185DD
:100D7000E02D0995892BE1F6D80116968D919C916D
:100D80001797019617969C938E931697CE01DF9135
:100D9000CF911F910F910895FA01AA27283051F1A0
:100DA000203181F1E8946F936E7F6E5F7F4F8F4F9C
:100DB0009F4FAF4FB1E03ED0B4E03CD0670F781FFB
:100DC000891F9A1FA11D680F791F8A1F911DA11DE0
:100DD0006A0F711D811D911DA11D20D009F4689419
:100DE0003F912AE0269F11243019305D3193DEF6C1
:100DF000CF010895462F4770405D4193B3E00FD077
:100E0000C9F7F6CF462F4F70405D4A3318F0495D61
:100E100031FD4052419302D0A9F7EACFB4E0A69544
:100E20009795879577956795BA95C9F70097610566
:100E3000710508959B01AC010A2E069457954795BC
:100E400037952795BA95C9F7620F731F841F951FB1
:100E5000A01D08952F923F924F925F926F927F92C2
:100E60008F929F92AF92BF92CF92DF92EF92FF92BA
:100E70000F931F93CF93DF93CDB7DEB7CA1BDB0B66
:100E80000FB6F894DEBF0FBECDBF09942A8839880B
:100E900048885F846E847D848C849B84AA84B98412
:100EA000C884DF80EE80FD800C811B81AA81B9811E
:100EB000CE0FD11D0FB6F894DEBF0FBECDBFED0132
:060EC0000895F894FFCF35
:100EC600000054032000304050607028292A2B2C43
:100ED6002D0F0A76616C75653A2025642063616E74
:100EE6005F6374726C3A202564200A0D004D4350EE
:100EF60032353135206973204E4F5420696E206398
:100F06006F6E66696775726174696F6E206D6F6466
:100F16006520616674657220726573657420210AA6
:100F26000D00596F752063616E206E6F74206269C3
:100F3600742D6D6F6469667920726567697374656F
:100F460072202564200A00444452423A2025642C2B
:100F560020535043523A2025642C20504F5254427D
:100F66003A2025642C20535044523A202564200D03
:100F76000A000A0A5350445220666F727269676506
:100F86003A2025640A0D00646174613A2025640ADA
:100F96000D00535044523A2025640A0D0053505315
:100FA600522077616974696E673A2025640A0D00DC
:100FB6005350535220646F6E653A2025640A0D0023
:100FC6005374617274696E67205352414D20746583
:100FD60073742E2E2E0057726974652070686173C3
:100FE60065206572726F723A206578745F72616D02
:100FF6005B2534645D203D202530325820287368F7
:101006006F756C642062652025303258290A0052BB
:10101600657472696576616C2070686173652065B8
:1010260072726F723A206578745F72616D5B2534F7
:10103600645D203D2025303258202873686F756C1A
:10104600642062652025303258290A005352414DEA
:10105600207465737420636F6D706C6574656420AD
:1010660077697468200A253464206572726F72731A
:1010760020696E20777269746520706861736520D7
:10108600616E64200A253464206572726F72732063
:10109600696E2072657472696576616C207068612C
:1010A60073650A0A0052656369657665645F6D65F6
:1010B60073736167653A202564200A202D2D2D2D36
:1010C6002D2D2D2D2D2D2D2D2D2D2D2D2D2D2D2D4A
:1010D6002D2D2D2D2D2D200A0D006E657744617462
:1010E600613A202564200A0D00535044523A2025C7
:1010F60064200A0D000D0A0A0A0A537461727420EC
:0A110600746573743A200A0D0000AE
:00000001FF
